:020000040800F2
:1000000000040020390200083B0200083B020008FF
:100010003B0200083B0200083B0200083B020008CC
:100020003B0200083B0200083B020008E1430008D5
:100030003B0200083B0200083B0200083B020008AC
:100040003B0200083B0200083B0200083B0200089C
:100050003B0200083B0200083B0200083B0200088C
:100060003B0200083B0200083B020008015D00085B
:10007000E15C0008C15C0008A15C0008815C00082C
:10008000615C0008415C00083B0200083B0200087C
:100090003B0200083B0200083B0200083B0200084C
:1000A0003B020008415900083B0200086159000862
:1000B0002159000871590008B1580008115B000867
:1000C000315A00083B0200083B0200083B020008CE
:1000D0003B0200083B020008E15600083B02000812
:1000E0003B0200083B0200083B0200083B020008FC
:1000F0003B0200083B0200083B0200083B020008EC
:100100003B0200083B0200083B0200083B020008DB
:100110003B0200083B0200083B0200083B020008CB
:100120003B0200083B0200083B0200083B020008BB
:100130003B0200083B0200083B0200083B020008AB
:100140003B0200083B0200083B0200083B0200089B
:100150003B0200083B0200083B0200083B0200088B
:1001600072B6274880F30888264880F30988264815
:100170004EF60851CEF200010860022080F3148888
:10018000BFF36F8F05F014FE05F06AFA4FF055309B
:100190001E491B4A91423CBF41F8040BFAE71C4937
:1001A000184A91423CBF41F8040BFAE719491A4A30
:1001B0001A4B9A423EBF51F8040B42F8040BF8E781
:1001C00000201749174A91423CBF41F8040BFAE757
:1001D00005F0A6FD05F0E4FD134C144DAC4203DA26
:1001E00054F8041B8847F9E704F032FA104C114D1B
:1001F000AC4203DA54F8041B8847F9E705F0C8BDA0
:10020000000400200008002000000008000000207A
:10021000000400205475000800080020300D002064
:10022000300D0020C81300206001000860010008A4
:10023000600100086001000892E700F000F8FEE7A6
:100240002DE9F04FC1F814D043699D46BDE8F08F09
:10025000002383F311882846A047002004F0D0F83B
:10026000FEE704F0D5F800DFFEE70000844641EA2F
:10027000000313F0030349D1403A23D30B68036012
:100280004B6843608B688360CB68C3600B69036114
:100290004B6943618B698361CB69C3610B6A0362FC
:1002A0004B6A43628B6A8362CB6AC3620B6B0363E4
:1002B0004B6B43638B6B8363CB6BC36340304031C9
:1002C000403ADBD230320BD30B6803604B6843609B
:1002D0008B688360CB68C36010301031103AF3D262
:1002E0000C3205D351F8043B40F8043B043AF9D2F0
:1002F000043208D0D2071CBF11F8013B00F8013BC3
:1003000001D30B8803806046704700BF082A13D3CF
:100310008B07B1D010F00303AED0C3F10403D21A9F
:10032000DB071CBF11F8013B00F8013BA4D331F8F7
:10033000023B20F8023B9FE7043AD9D3013A11F877
:10034000013B00F8013BF9D20B7803704B78437006
:100350008B7883706046704780EA010C1CF0030FB5
:1003600037D110F0030C20F0030021F0030150F806
:10037000042B08BF51F8043B0ED08CF0030C6FF037
:100380007F434FEACC0C23FA0CFC51F8043B42EAC1
:100390000C0243EA0C0300BFA2F1013C9A4201BFE8
:1003A0002CEA020C1CF0803F50F8042B51F8043B5F
:1003B000F2D04FEA02604FEA1222012828BFB0EBC8
:1003C000036F08BF1B0AF4D003F0FF03000EC01A2E
:1003D000704710F0030F0AD010F8012B11F8013B01
:1003E000012A28BF9A42F4D0A2EB030070474DF8CF
:1003F000045D50F8042B01F0030521F0030151F8CE
:10040000043B022D26D04DD822F07F45B5EB132FAB
:10041000A2F1013C2CEA020C0DD11CF0803C08BF7B
:1004200051F8043B0AD185EA0205B5EB036F0CD104
:1004300050F8042BE8E74FEA13235BE03CF07F4CD5
:1004400054D10B784FEA126554E04FEA126503F07D
:10045000FF034FE04FEA0245A2F1013C4FEA154588
:100460002CEA020CB5EB134F18D11CF0803C08BFEE
:1004700051F8043B07D185EA0205B5EB034F09D1DA
:1004800050F8042BE6E75FEA0C4C2FD10B884FEABB
:1004900012452FE04FEA03434FEA12454FEA134358
:1004A00028E000BF02F0FF05B5EB136FA2F1013C9D
:1004B0002CEA020C0DD11CF0803C08BF51F8043B23
:1004C0000AD185EA0205B5EB032F0AD150F8042BB7
:1004D000E8E74FEA13630DE012F0FF0F06D051F882
:1004E000043B4FEA122523F07F4303E04FF0000066
:1004F00020BC704705F0FF0203F0FF00012828BF71
:10050000904204BF2D0A1B0AF4D0A2EB000020BCCD
:10051000704700BF81F0004102E000BF83F000435C
:1005200030B54FEA41044FEA430594EA050F08BF8E
:1005300090EA020F1FBF54EA000C55EA020C7FEA52
:10054000645C7FEA655C00F0E2804FEA5454D4EBCF
:100550005555B8BF6D420CDD2C4480EA020281EA99
:10056000030382EA000083EA010180EA020281EAD1
:100570000303362D88BF30BD11F0004F4FEA013123
:100580004FF4801C4CEA113102D0404261EB410132
:1005900013F0004F4FEA03334CEA133302D05242B8
:1005A00063EB430394EA050F00F0A780A4F1010474
:1005B000D5F1200E0DDB02FA0EFC22FA05F28018AE
:1005C00041F1000103FA0EF2801843FA05F3594194
:1005D0000EE0A5F120050EF1200E012A03FA0EFC13
:1005E00028BF4CF0020C43FA05F3C01851EBE3713D
:1005F00001F0004507D54FF0000EDCF1000C7EEB5A
:1006000000006EEB0101B1F5801F1BD3B1F5001F97
:100610000CD349085FEA30004FEA3C0C04F10104B6
:100620004FEA445212F5800F80F09A80BCF1004FDF
:1006300008BF5FEA500C50F1000041EB045141EA61
:10064000050130BD5FEA4C0C404141EB0101013C2A
:1006500028BFB1F5801FE9D291F0000F04BF014619
:100660000020B1FA81F308BF2033A3F10B03B3F1EB
:1006700020020CDA0C3208DD02F1140CC2F10C027B
:1006800001FA0CF021FA02F10CE002F11402D8BFD9
:10069000C2F1200C01FA02F120FA0CFCDCBF41EAA5
:1006A0000C019040E41AA2BF01EB0451294330BD74
:1006B0006FEA04041F3C1CDA0C340EDC04F1140451
:1006C000C4F1200220FA04F001FA02F340EA030028
:1006D00021FA04F345EA030130BDC4F10C04C4F16E
:1006E000200220FA02F001FA04F340EA030029464E
:1006F00030BD21FA04F0294630BD94F0000F83F498
:10070000801306BF81F480110134013D4EE77FEA7A
:10071000645C18BF7FEA655C29D094EA050F08BFC6
:1007200090EA020F05D054EA000C04BF19461046A7
:1007300030BD91EA030F1EBF0021002030BD5FEAEB
:10074000545C05D14000494128BF41F0004130BD13
:1007500014F580043CBF01F5801130BD01F0004567
:1007600045F0FE4141F470014FF0000030BD7FEADA
:10077000645C1ABF194610467FEA655C1CBF0B46D5
:10078000024650EA013406BF52EA033591EA030FEC
:1007900041F4002130BD00BF90F0000F04BF0021E4
:1007A000704730B54FF4806404F132044FF0000517
:1007B0004FF0000150E700BF90F0000F04BF002190
:1007C000704730B54FF4806404F1320410F00045F6
:1007D00048BF40424FF000013EE700BF42004FEAF1
:1007E000E2014FEA31014FEA02701FBF12F07F436E
:1007F00093F07F4F81F06051704732F07F4208BF25
:10080000704793F07F4F04BF41F40021704730B52B
:100810004FF4607401F0004521F000411CE700BF77
:1008200050EA010208BF704730B54FF000050AE0FA
:1008300050EA010208BF704730B511F0004502D5FB
:10084000404261EB41014FF4806404F132045FEAFD
:10085000915C3FF4D8AE4FF003025FEADC0C18BFA6
:1008600003325FEADC0C18BF033202EBDC02C2F198
:10087000200300FA03FC20FA02F001FA03FE40EA2A
:100880000E0021FA02F11444BDE600BF70B54FF02E
:10089000FF0C4CF4E06C1CEA11541DBF1CEA13550C
:1008A00094EA0C0F95EA0C0F00F0DEF82C4481EA74
:1008B000030621EA4C5123EA4C5350EA013518BF94
:1008C00052EA033541F4801143F4801338D0A0FB81
:1008D00002CE4FF00005E1FB02E506F00042E0FB2E
:1008E00003E54FF00006E1FB03569CF0000F18BF34
:1008F0004EF0010EA4F1FF04B6F5007F64F54074DC
:1009000004D25FEA4E0E6D4146EB060642EAC6216E
:1009100041EA55514FEAC52040EA5E504FEACE2EDB
:10092000B4F1FD0C88BFBCF5E06F1ED8BEF1004FDE
:1009300008BF5FEA500E50F1000041EB045170BD5A
:1009400006F0004646EA010140EA020081EA03019E
:10095000B4EB5C04C2BFD4EB0C0541EA045170BD9A
:1009600041F480114FF0000E013C00F3AB8014F114
:10097000360FDEBF002001F0004170BDC4F100045D
:10098000203C35DA0C341BDC04F11404C4F12005DE
:1009900000FA05F320FA04F001FA05F240EA020039
:1009A00001F0004221F0004110EBD37021FA04F66F
:1009B00042EB06015EEA430E08BF20EAD37070BD29
:1009C000C4F10C04C4F1200500FA04F320FA05F088
:1009D00001FA04F240EA020001F0004110EBD3708A
:1009E00041F100015EEA430E08BF20EAD37070BDFA
:1009F000C4F1200500FA05F24EEA020E20FA04F3D3
:100A000001FA05F243EA020321FA04F001F0004181
:100A100021FA04F220EA020000EBD3705EEA430EF2
:100A200008BF20EAD37070BD94F0000F0FD101F021
:100A30000046400041EB010111F4801F08BF013C5A
:100A4000F7D041EA060195F0000F18BF704703F098
:100A50000046520043EB030313F4801F08BF013D1F
:100A6000F7D043EA0603704794EA0C0F0CEA1355DB
:100A700018BF95EA0C0F0CD050EA410618BF52EA95
:100A80004306D1D181EA030101F000414FF000009B
:100A900070BD50EA410606BF1046194652EA4306A9
:100AA00019D094EA0C0F02D150EA013613D195EA1D
:100AB0000C0F05D152EA03361CBF104619460AD165
:100AC00081EA030101F0004141F0FE4141F470016F
:100AD0004FF0000070BD41F0FE4141F4780170BD5F
:100AE00070B54FF0FF0C4CF4E06C1CEA11541DBFC4
:100AF0001CEA135594EA0C0F95EA0C0F00F0A7F8C6
:100B0000A4EB050481EA030E52EA03354FEA0131F2
:100B100000F088804FEA03334FF0805545EA131305
:100B200043EA12634FEA022245EA111545EA1065CD
:100B30004FEA00260EF000419D4208BF964244F164
:100B4000FD0404F5407402D25B084FEA3202B61A83
:100B500065EB03055B084FEA32024FF480104FF457
:100B6000002CB6EB020E75EB030E22BFB61A7546CB
:100B700040EA0C005B084FEA3202B6EB020E75EB5E
:100B8000030E22BFB61A754640EA5C005B084FEAC6
:100B90003202B6EB020E75EB030E22BFB61A754693
:100BA00040EA9C005B084FEA3202B6EB020E75EB9E
:100BB000030E22BFB61A754640EADC0055EA060E5F
:100BC00018D04FEA051545EA16754FEA06164FEAA2
:100BD000C30343EA52734FEAC2025FEA1C1CC0D14E
:100BE00011F4801F0BD141EA00014FF000004FF0DB
:100BF000004CB6E711F4801F04BF01430020B4F19C
:100C0000FD0C88BFBCF5E06F3FF6AFAEB5EB030C53
:100C100004BFB6EB020C5FEA500C50F1000041EB50
:100C2000045170BD0EF0004E4EEA113114EB5C041D
:100C3000C2BFD4EB0C0541EA045170BD41F48011F0
:100C40004FF0000E013C90E645EA060E8DE60CEAF8
:100C5000135594EA0C0F08BF95EA0C0F3FF43BAF15
:100C600094EA0C0F0AD150EA01347FF434AF95EACC
:100C70000C0F7FF425AF104619462CE795EA0C0FB0
:100C800006D152EA03353FF4FDAE1046194622E77D
:100C900050EA410618BF52EA43067FF4C5AE50EA57
:100CA00041047FF40DAF52EA43057FF4EBAE12E747
:100CB0004A0011D212F5001211D20DD56FF47873DB
:100CC000B3EB62520ED44FEAC12343F0004343EA30
:100CD000505323FA02F070474FF00000704750EA7B
:100CE000013002D14FF0FF3070474FF000007047E5
:100CF0004FEA4102B2F1E04324BFB3F5001CDCF13E
:100D0000FE5C0DD901F0004C4FEAC0024CEA507075
:100D1000B2F1004F40EB830008BF20F001007047A4
:100D200011F0804F21D113F13872BCBF01F00040A7
:100D3000704741F480114FEA5252C2F11802C2F1D9
:100D4000200C10FA0CF320FA02F018BF40F001005A
:100D50004FEAC1234FEAD32303FA0CFC40EA0C000C
:100D600023FA02F34FEA4303CCE77FEA625307D149
:100D700050EA01331EBF4FF0FE4040F44000704780
:100D800001F0004040F0FE4040F40000704700BF1A
:100D900080F0004002E000BF81F0004142001FBF30
:100DA0005FEA410392EA030F7FEA226C7FEA236C39
:100DB0006AD04FEA1262D2EB1363C1BFD21841402E
:100DC00048404140B8BF5B42192B88BF704710F0C4
:100DD000004F40F4000020F07F4018BF404211F067
:100DE000004F41F4000121F07F4118BF494292EACF
:100DF000030F3FD0A2F1010241FA03FC10EB0C00FB
:100E0000C3F1200301FA03F100F0004302D5494287
:100E100060EB4000B0F5000F13D3B0F1807F06D334
:100E200040084FEA310102F10102FE2A51D2B1F12C
:100E3000004F40EBC25008BF20F0010040EA030021
:100E40007047490040EB0000013A28BFB0F5000FA1
:100E5000EDD2B0FA80FCACF1080CB2EB0C0200FA57
:100E60000CF0AABF00EBC25052421843BCBFD040A6
:100E70001843704792F0000F81F4000106BF80F420
:100E800000000132013BB5E74FEA41037FEA226CE3
:100E900018BF7FEA236C21D092EA030F04D092F0AE
:100EA000000F08BF0846704790EA010F1CBF0020E2
:100EB000704712F07F4F04D1400028BF40F000403F
:100EC000704712F100723CBF00F50000704700F05F
:100ED000004343F0FE4040F4000070477FEA226286
:100EE00016BF08467FEA23630146420206BF5FEA57
:100EF000412390EA010F40F4800070474FF0000357
:100F000004E000BF10F0004348BF40425FEA000C1D
:100F100008BF704743F0964301464FF000001CE0C5
:100F200050EA010208BF70474FF000030AE000BF1B
:100F300050EA010208BF704711F0004302D5404259
:100F400061EB41015FEA010C02BF844601460020CB
:100F500043F0B64308BFA3F18053A3F50003BCFAE6
:100F60008CF2083AA3EBC25310DB01FA02FC634493
:100F700000FA02FCC2F12002BCF1004F20FA02F29A
:100F800043EB020008BF20F00100704702F120028D
:100F900001FA02FCC2F1200250EA4C0021FA02F2EE
:100FA00043EB020008BF20EADC7070474FF0FF0CF3
:100FB0001CEAD0521EBF1CEAD15392EA0C0F93EAEE
:100FC0000C0F6FD01A4480EA010C400218BF5FEA90
:100FD00041211ED04FF0006343EA501043EA511103
:100FE000A0FB01310CF00040B1F5000F3EBF4900FD
:100FF00041EAD3715B0040EA010062F17F02FD2A01
:101000001DD8B3F1004F40EBC25008BF20F00100E3
:10101000704790F0000F0CF0004C08BF49024CEAFA
:10102000502040EA51207F3AC2BFD2F1FF0340EA8C
:10103000C250704740F400004FF00003013A5DDCFD
:1010400012F1190FDCBF00F000407047C2F100023E
:10105000410021FA02F1C2F1200200FA02FC5FEA2B
:10106000310040F1000053EA4C0308BF20EADC7075
:10107000704792F0000F00F0004C02BF400010F4E7
:10108000000F013AF9D040EA0C0093F0000F01F094
:10109000004C02BF490011F4000F013BF9D041EAB6
:1010A0000C018FE70CEAD15392EA0C0F18BF93EAB8
:1010B0000C0F0AD030F0004C18BF31F0004CD8D1E2
:1010C00080EA010000F00040704790F0000F17BF69
:1010D00090F0004F084691F0000F91F0004F14D0AF
:1010E00092EA0C0F01D142020FD193EA0C0F03D107
:1010F0004B0218BF084608D180EA010000F000400A
:1011000040F0FE4040F40000704740F0FE4040F4E4
:10111000400070474FF0FF0C1CEAD0521EBF1CEA83
:10112000D15392EA0C0F93EA0C0F69D0A2EB0302A1
:1011300080EA010C49024FEA402037D04FF080533B
:1011400043EA111143EA10130CF000408B4238BF00
:101150005B0042F17D024FF4000C8B4224BF5B1A0E
:1011600040EA0C00B3EB510F24BFA3EB510340EA5C
:101170005C00B3EB910F24BFA3EB910340EA9C000A
:10118000B3EBD10F24BFA3EBD10340EADC001B017A
:1011900018BF5FEA1C1CE0D1FD2A3FF650AF8B421E
:1011A00040EBC25008BF20F0010070470CF0004C2B
:1011B0004CEA50207F32C2BFD2F1FF0340EAC25056
:1011C000704740F400004FF00003013A37E792F017
:1011D000000F00F0004C02BF400010F4000F013A75
:1011E000F9D040EA0C0093F0000F01F0004C02BF70
:1011F000490011F4000F013BF9D041EA0C0195E7D9
:101200000CEAD15392EA0C0F08D142027FF47DAF71
:1012100093EA0C0F7FF470AF084676E793EA0C0F61
:1012200004D14B023FF44CAF08466EE730F0004C5F
:1012300018BF31F0004CCAD130F000427FF45CAFEF
:1012400031F000437FF43CAF5FE700BF4FF0FF3C5D
:1012500006E000BF4FF0010C02E000BF4FF0010CB0
:101260004DF804CD4FEA40024FEA41037FEA226C79
:1012700018BF7FEA236C11D001B052EA530C18BF9B
:1012800090EA010F58BFB2EB030088BFC81738BF00
:101290006FEAE17018BF40F0010070477FEA226CEE
:1012A00002D15FEA402C05D17FEA236CE4D15FEAEA
:1012B000412CE1D05DF8040B704700BF844608461E
:1012C0006146FFE70FB5FFF7C9FF002848BF10F1DF
:1012D000000F0FBD4DF808EDFFF7F4FF0CBF012024
:1012E00000205DF808FB00BF4DF808EDFFF7EAFFAE
:1012F00034BF012000205DF808FB00BF4DF808ED69
:10130000FFF7E0FF94BF012000205DF808FB00BF5D
:101310004DF808EDFFF7D2FF94BF012000205DF8E3
:1013200008FB00BF4DF808EDFFF7C8FF34BF0120F0
:1013300000205DF808FB00BF42000ED2B2F1FE4F64
:101340000BD34FF09E03B3EB126209D44FEA002394
:1013500043F0004323FA02F070474FF0000070475B
:1013600012F1610F01D1420202D14FF0FF307047FC
:101370004FF00000704700BF53B94AB9002908BFB9
:1013800000281CBF4FF0FF314FF0FF3000F06EB966
:10139000ADF1080C6DE904CE00F006F8DDF804E0CC
:1013A000DDE9022304B070472DE9F047089E0D46A1
:1013B00004468E46002B40F083808A42174647D968
:1013C000B2FA82F34BB1C3F1200105FA03FE20FA11
:1013D00001F19F4041EA0E0E9C404FEA1748BEFBC8
:1013E000F8FC1FFA87F908FB1CE20CFB09F0210C42
:1013F00041EA024290420AD9BA180CF1FF3180F05A
:101400001881904240F21581ACF1020C3A44121A54
:10141000B2FBF8F008FB102200FB09F1A4B244EA89
:101420000244A14209D93C1900F1FF3280F0038146
:10143000A14240F2008102383C44641A002140EA93
:101440000C401EB10022DC40C6E90042BDE8F08736
:1014500002B9FFDEB2FA82F3002B4FD18D1A0121BF
:101460004FEA124E1FFA82F8B5FBFEFC0EFB1C552C
:1014700008FB0CF0220C42EA0545A84207D97D1969
:101480000CF1FF3202D2A84200F2E98094462D1AF4
:10149000B5FBFEF00EFB105508FB00F8A4B244EAC1
:1014A0000544A04507D93C1900F1FF3202D2A045FE
:1014B00000F2D9801046A4EB080440EA0C40C0E7D3
:1014C0008B4208D9002E00F0B1800021C6E900054A
:1014D0000846BDE8F087B3FA83F100294BD1AB424F
:1014E00002D3824200F2B980841A65EB0303012023
:1014F0009E46002EAAD0C6E9004EA7E79F40C3F142
:101500002002D1404FEA174EB1FBFEF01FFA87F8D8
:101510000EFB101124FA02F29D4000FB08FC2A4346
:10152000150C45EA0145AC4504FA03F409D97D19C7
:1015300000F1FF3180F08F80AC4540F28C800238A2
:101540003D44A5EB0C05B5FBFEF10EFB115C01FB68
:1015500008F995B245EA0C45A94507D97D1901F16D
:10156000FF3274D2A94572D902393D44A5EB090571
:1015700041EA004178E7C1F120078B4022FA07FCDD
:101580004CEA030C25FA07F44FEA1C4EB4FBFEF9B3
:101590001FFA8CF80EFB194420FA07F309FB08FA2E
:1015A0008D401D432B0C43EA0444A24502FA01F28C
:1015B00000FA01F309D91CEB040409F1FF3048D209
:1015C000A24546D9A9F102096444A4EB0A04B4FB7C
:1015D000FEF00EFB104400FB08FAADB245EA0444ED
:1015E000A24508D91CEB040400F1FF352DD2A24519
:1015F0002BD90238644440EA0940A0FB0289A4EBDD
:101600000A044C45C6464D4619D316D05EB1B3EB1D
:101610000E0264EB050404FA07F722FA01F31F43F4
:10162000CC40C6E900740021BDE8F0873146304661
:101630000CE78C46EBE61046FFE64345E6D2B8EBF6
:10164000020E69EB0C050138E0E72846D3E71146A6
:101650008CE78146B9E7084673E7084649E7ACF1ED
:10166000020C3D4413E702383C4424E7704700BFB6
:101670002DE9F0410126294C06FA00F522681542B1
:1016800018BF002001D0BDE8F0810346DFF898C004
:101690002A432260DCF814009A1944F83210204FD3
:1016A000204940EA060E04EBC202516007EB03102A
:1016B000CCF814E08268D4F804E0DCF814101EEAD8
:1016C000020F4FEA031312D00E214FF0000CFE1848
:1016D0007268FF58767B45EA0E031568B14025F025
:1016E0000F05156063607960C2F800C0CBE74FF06A
:1016F000500CC27B5109890002F1604801F1604140
:1017000002F01F0201F5614106FA02F208F5614894
:1017100088F800C3C1F880210A60D5E7F00F0020E7
:101720007C710008300D0020001002400000000015
:101730002DE9F0410546214A108832F81030013871
:10174000AB4217D95688B54218D9002812DD0024BB
:10175000234600E04E88B54202EB430304F1010149
:1017600002D39F88BD420DD98CB2A042234602EB22
:101770004401EFDC84B22046BDE8F081002420461D
:10178000BDE8F081F0194010FFF7BCFBB74280467E
:1017900028460AD9FFF7B6FB01464046FFF7C2FDCF
:1017A0000028E8D10134A4B2E5E7FFF7ABFB01461E
:1017B0004046FFF799FD0028DDD1F3E7000800203F
:1017C000202330B483F311880B4B4942D3E9004501
:1017D000281A0840821AA24207D3954205D35A60BC
:1017E000002383F3118830BC70470020002383F36B
:1017F000118830BC704700BFC80F002000000000F7
:10180000024AD36843F0C003D360704700440040ED
:10181000124A1349936810B403FB00F3A1FB0313AE
:1018200020245B0B84F31188D168906941F0040196
:10183000C363D160002383F3118884F31188926914
:10184000D368190705D46FF0080143F0080311614C
:10185000D360002383F3118810BC7047980D0020DB
:101860005917B7D100000000000000000000000080
:10187000002000220249034B08801A60704700BF15
:10188000D00F0020781200200000000000000000AF
:10189000436910B51868064C0130FFF72FFBFFF7BE
:1018A0004BFD044A206013880133138010BD00BF34
:1018B00068120020D00F002000000000000000008F
:1018C0008068704700000000000000000000000079
:1018D000202383F311880D4B5B6813F4006302D15E
:1018E00083F311887047EFF309834FF08072203B38
:1018F000DA6183F30988064A116852698968926837
:1019000091428CBF034A044A9A61704700ED00E09F
:10191000300E00206302000866020008000000008C
:10192000084B10B4D3E900424942101A0840A042C3
:1019300004D3824202D310BC58607047002010BC10
:10194000704700BFC80F002000000000000000002A
:101950000E4A0F4B116F5B6882685B1A9B1AC26854
:1019600030B4D0E9044541680132E418C0E90232DC
:10197000026845F100058B4288BF43609342C0E98D
:10198000044530BC38BF0360704700BF300E0020F4
:10199000001000E000000000000000000000000057
:1019A000014B5B6883607047001000E0000000009E
:1019B000F0B4002102270125836846680469194AAA
:1019C00043F82C6C43F86C4C06684469C06803F813
:1019D000265C03F8271C03F8287C43F83C2C124DA6
:1019E00043F8684C43F8400C146943F80C0CA3F11D
:1019F0006C0043E9051143F8340C43F84C5CA3F147
:101A00004800A3F12005A3F11C0143F8306C43F812
:101A1000384CE060106143E90851F0BC43F8181CF1
:101A2000704700BF300E0020510200080000000087
:101A3000202383F3118890F82030072B0DD8DFE89E
:101A400003F0270C0C2308040C08426A9368013346
:101A50009360D0E9003213605A60002210B44FF056
:101A6000FF3481680C4B446280F820201B689A6820
:101A70008A42FBD25A680021C0E9003210605860E7
:101A800081F3118810BC70470022436A1A60E4E7B2
:101A9000002383F311887047300E002000000000FF
:101AA00000228168064B80F820201B689A688A42D1
:101AB000FBD25A68C0E9003210605860704700BF1E
:101AC000300E0020000000000000000000000000B8
:101AD000F8B50468A04221D007460D46002604E070
:101AE0000B2A1CD02468A74218D0E3682B43E3607C
:101AF00015B123691D42F5D0D4E90103416B90F87B
:101B000020200B430A2A4363EAD1426A1342E9D0F8
:101B10004662FFF7C5FF2468A742E6D1F8BD426AD6
:101B200032EA0303DED1F3E700000000000000000A
:101B3000FEE700BF00000000000000000000000001
:101B400038B5C36841681A69DD6804461540EAB2D1
:101B5000D2431A610B7D7BB96B072BD50378042B1D
:101B600025D0A9070FD4ED0705D5636820461B696A
:101B700098470323237038BDAA070AD50378042B9E
:101B800004D06B07EFD504232370ECE78B68D3B147
:101B900098476B07E7D52378042BF4D16168CB68AD
:101BA000002BF0D02046984704232370DBE78B6896
:101BB00033B19847A907D6D52378042BE3D1EDE7B5
:101BC000A807ECD4CFE76A07E9D4CCE7000000000F
:101BD0000B0712D4D0E90C200E2330B4D2E9005404
:101BE000216821F00F012160527B93406B604368B4
:101BF00030BC43F400734360704772B6014B024A35
:101C00009A62FEE7300E00203861000800000000F4
:101C100011F0080126D10E2270B5C46A436B6668C4
:101C2000356825F00F053560657B2468AA40626041
:101C30005A68202422F480525A601A6822F4806282
:101C40001A601A6842F400721A6084F31188C3693A
:101C500023B1C16118465962FFF722FF002383F3C5
:101C6000118870BD72B6024B024A9A62FEE700BF4D
:101C7000300E002038610008000000000000000065
:101C8000032AF0B42DD0042A08BF4161002308279D
:101C90001D461C461E46DFF850C01CF8022011F0FD
:101CA000800F4FEA04144FEA03134FEA06164FEA77
:101CB00005150CBF44F00F04134311F4004F0CBF83
:101CC00046F00F061543013F4FEA4101E7D1426854
:101CD0001640354345600268144023430360F0BC5E
:101CE00070470161D2E700BFEC71000800000000FE
:101CF00030B40268437B11684468D940246801F01D
:101D00000E010C420ED0807B074C013054F830504D
:101D100001FA03F353602DB104EBC0002B4630BC35
:101D20004068184730BC7047F00F002000000000EA
:101D300000207047000000000000000000000000CC
:101D400000207047000000000000000000000000BC
:101D50004068704700000000000000000000000024
:101D6000002203461046C3E901221A60DA60704778
:101D700010B4C4680246D4E90003181A884228BF88
:101D8000084610BC90607047000000000000000092
:101D9000C36858681B68C01A704700BF0000000085
:101DA000002070470000000000000000000000005C
:101DB00070B40026134B8468596946628D68AC4242
:101DC0000CD880F820601B689A689442FBD970BCDC
:101DD0005A68C0E900321060586070471A4681F8AE
:101DE000206012689468A542FBD301255468C1E9BC
:101DF00000242160516080F8205070BC5861FEF7CB
:101E00001FBA00BF300E00200000000000000000DC
:101E100030B40125074B59691A6881F8200014680D
:101E20001046636082F820501C6030BC5A61FEF797
:101E300007BA00BF300E00200000000000000000C4
:101E4000F8B52023054683F31188304B80685C6920
:101E500040B3A2688368934207D290F82030826032
:101E6000062B3AD0072B25D0ABB12B4603E099685F
:101E7000A268914202D31B689D42F8D15A6806209D
:101E8000C4E9003214605C606562FFF7C1FF0023A3
:101E900083F31188F8BDD0E9003213605A60FFF770
:101EA000FFFDE2E7A36BC5E902430023A56383F3CB
:101EB0001188F8BD466A47680168334639604F604B
:101EC00002E09968914202D31B689E42F9D15A6898
:101ED000C0E9003210605860C7E7466A4768016889
:101EE000334639604F6002E09968914202D31B6823
:101EF0009E42F9D15A68C0E9003210605860B0685B
:101F0000A26883689A42A8D8AFE700BF300E0020CD
:101F100038B503460F4A5469A06A04F12805A8425F
:101F2000636206D00368A362FFF7BAFDA06AA84205
:101F3000F8D194F822303BB994F821309B0703D1B3
:101F4000D4E90332D3601A610F20BDE83840FFF7AF
:101F50005FBF00BF300E0020000000000000000046
:101F60002DE9F0414B1C86B053D04B4D07462E4611
:101F70004A4856F8184F426A0229DFF824C16B69B3
:101F800038BF0221B442059392B2CDF810C067D099
:101F9000B5F824C0A2EB0C0293B2C918A3682CD3E5
:101FA0002468C91AA3688B42FAD34FF0FF326368E2
:101FB0000DF10408CDE90143C3F80080C4F80480A2
:101FC0000391A368591AA1602A623846FFF720FFDF
:101FD000049B6BB1AB69434523D0DDE9013213604B
:101FE000019BB3425A6003D09A6803990A449A60ED
:101FF0006B69586A06B0BDE8F0819942D3D24FF6BA
:10200000FF72914294BF8C4494441FFA8CF2426355
:10201000C9E7FFF7FDFE204D6B69586A06B0BDE8C1
:10202000F0810023019AB242AA615660049330D035
:10203000936803981949034493604A6AA98C521A19
:1020400092B29342D4D9981A012820D94FF6FF7240
:10205000934228BF1346114A0B449BB25363C7E710
:102060004FF6FF73994294BF5318D3184FF0000CEA
:1020700002249BB20DF10408CDE90166C5E906888A
:10208000AA8403914363C0F810C0C4609DE7931C09
:10209000E1E7024AD360ABE7300E002000040040C5
:1020A000311A0008000000000000000000000000DD
:1020B00061B10346074A10B4526944680420C2E97A
:1020C0000034226010BC5A60FFF74ABF4FF0FF3067
:1020D000704700BF300E002000000000000000002C
:1020E000F8B504460F461646202383F3118805E011
:1020F00031462046FFF7DCFF002817DBA568002DDE
:10210000F6D06269A368511C013B6161A36017703E
:10211000D4E904329A4224BFE3686361E3690BB1F6
:1021200020469847002080F31188F8BD85F3118878
:10213000F8BD00BF0000000000000000000000002B
:102140003030FFF7CDBF00BF0000000000000000EE
:102150004FF0FF323030FFF7C3BF00BF0000000078
:1021600070B5202305460E4683F3118805E03146FD
:102170002846FFF79DFF002818DBAC68002CF6D03E
:10218000A969AB6828694A1C013B8242AB6028BF41
:10219000EB68AA610C7828BFAB61EB690BB12846EC
:1021A0009847002383F31188204670BD84F311887B
:1021B00070BD00BF00000000000000000000000033
:1021C0000C30FFF7CDBF00BF000000000000000092
:1021D0004FF0FF310C30FFF7C3BF00BF000000001D
:1021E00008B50146202383F311880820FFF7B8FEC5
:1021F000002383F3118808BD0000000000000000E8
:102200004FF0000A2DE988481B4B1C4A5B691C4CA7
:10221000DFF880801B4E1C4DDFF87CB01B4FDFF8D1
:102220007C909A61238801339BB2042B238005D9CB
:102230000022FB6883F00203FB602280B8F80030C4
:10224000B3B12888FEF75EFE01463068FEF762FFF4
:102250000023DBF884102B80C6F800A0FEF7A6FE52
:1022600001464846FEF756FFFFF766F8084B188010
:10227000C820FFF7B5FFD5E7300E00204461000805
:10228000D20F002078120020D00F0020000C014057
:102290006C1200209C080020000800204054094CCB
:1022A0002DE9F042002449000184054691461F466D
:1022B000416B846084F311882B6BD5E90A2E5B682F
:1022C000334E1A60DEF80420C3F80C905F606B6A2E
:1022D000B4461360069B2020D360079B5360726A4C
:1022E00092B201E084F3118880F311888B699E0714
:1022F00002D40B689B051FD5DCF824309B1A9BB2D7
:10230000632BEFD90E23D5E90B21D1E900542068C6
:1023100020F00F002060497B506803FA01F16960EA
:102320000168146821F00F0101604FF0FF30527B0B
:1023300093406360BDE8F0822B464A68154842F43A
:1023400000724A600A68406942F480720A6043F889
:102350001C0F436208990320FFF702FE0028E9D012
:10236000D5E90B240E236568296821F00F01296047
:10237000617B256803FA01F154686960216815687A
:1023800021F00F012160527B93406B60BDE8F08229
:1023900000040040300E002000000000000000009B
:1023A0002DE9F041D0E90246B4420746884651D0B3
:1023B000D0E900C0234600211CF80350013101354B
:1023C0002B449842D8BF1B1AB342F5D1012A3D696C
:1023D0003BD0A94252DBB44253D04B1E9D4253D056
:1023E000D7E900EC002003E0C3430B449D4214D026
:1023F0001EF80430013001331C44A445D8BFA4EBBF
:102400000C04B442F0D11EF806405CB9012A35D163
:1024100001353D612046BDE8F08126461EF80640A4
:10242000002CF3D001354022002140463D6103F0ED
:1024300059FD7B68A2199A4210DA39680136404684
:1024400022463144FDF712FFE4E7002D04DD023D92
:102450003D61BEE70021B9E70024DBE79B1B39683B
:102460005D1E01362A4631444046FDF7FFFE3968BD
:1024700008EB0500621BFDF7F9FECBE74FF0FF34D8
:10248000C8E7D7F800E0BEE72646D7F800E0BAE78D
:102490002DE9F04F85B04FF02009CDE90232C76930
:1024A00089F31188AAB304460E464FF0000ADDF8FE
:1024B0000CB0A268934598BF5D46D4E9042088BF5C
:1024C000A568A2EB0008A84544D829D2A5EB0803CB
:1024D000424631460193FDF7C9FE06EB0801DDF8DF
:1024E0000480E0684246FDF7C1FE4346A268E16809
:1024F000521BCB186361A2600FB12046B8478AF324
:102500001188ABEB050B2E4489F31188BBF1000F4A
:10251000CFD10023039883F3118805B0BDE8F08F75
:102520002A463146FDF7A2FEE2686261A268521BAC
:10253000A260002DE0D120460299FFF7B9FD0028E6
:10254000B7D0039BA3EB0B00002383F3118805B0E6
:10255000BDE8F08F2A463146FDF788FE62692A44BD
:102560006261E3E7000000000000000000000000DE
:102570003030FFF78DBF00BF0000000000000000FA
:102580004FF0FF333030FFF783BF00BF0000000083
:102590002DE9F04F85B04FF02009CDE90232C7692F
:1025A00089F31188002A35D004460E464FF0000A00
:1025B000DDF80CB0A268A169934598BF5D46226919
:1025C00088BFA568A2EB0108A84544D829D2A5EB8D
:1025D0000803424630460193FDF748FE06EB08002B
:1025E000DDF80480E1684246FDF740FE4346A268FC
:1025F000E168521BCB18A361A2600FB12046B84717
:102600008AF31188ABEB050B2E4489F31188BBF1DB
:10261000000FCFD10023039883F3118805B0BDE8E4
:10262000F08F2A463046FDF721FEE268A261A268DB
:10263000521BA260002DE0D120460299FFF738FD21
:102640000028B7D0039BA3EB0B00002383F3118872
:1026500005B0BDE8F08F2A463046FDF707FEA269B7
:102660002A44A261E3E700BF000000000000000070
:102670000C30FFF78DBF00BF00000000000000001D
:102680004FF0FF330C30FFF783BF00BF00000000A6
:1026900038B50D46B0B1044628602046104903F015
:1026A000F5FC215C0444222912D020460C4903F099
:1026B000D1FC98B10023421C2A600370237823B117
:1026C000204638BD0C68002CE7D10024204638BDD8
:1026D0000134204603F056FC0028EBD12860EDE7DA
:1026E0004C61000800000000000000000000000035
:1026F0000EB42DE9F04F86B00FAB53F8044B2246D1
:1027000012F8011B0293002900F03E82064698460B
:1027100000270BE033683046DB68144601379847E2
:10272000224612F8011B002900F0C0802529F1D1B2
:1027300063782D2B08BFA21C13780CBF4FF0010C3F
:102740004FF0000C2B2B05BF0125537800255219A3
:10275000302B05BF9A4653784FF0200A01322A2BBE
:1027600040F0AD8058F8041B5378941C2E2B00F0D9
:102770003181002203F0DF004C2800F0B380A3F188
:10278000440EBEF1340F00F29981DFE81EF06301C0
:1027900097019701970197016301970197019701AD
:1027A000970197019B0135009701970197019701C8
:1027B00095009701970135009701970197019701BF
:1027C0009701970197019701970197014F016301C5
:1027D000970197019701970163019701970197016D
:1027E000970197019B013500970197012E019701F1
:1027F00095009701970135004FF0100E58F8040B23
:102800000DF1170300E02B468146B0FBFEF00EFBF6
:10281000109B0BF13002392AC8BF0BF13702D2B23C
:10282000F14503F1FF3503F8012CECD20DF1170E41
:102830009B4673460DF10C095D1B48465B4601E063
:1028400013F8012B734500F8012BF9D1491B013D09
:1028500021EAE17BBCF1000F04D10029CBF1000B90
:1028600000F34481002D0EDB6B1C4B4401941C468D
:10287000326819F8011B3046D2689047A145F7D15C
:102880000137019C2F44BBF1000F3FF449AF5D4677
:10289000336851463046DB689847013DF8D12246FF
:1028A00012F8011B5F4400297FF440AF384606B0A0
:1028B000BDE8F04F03B070474FF00A0E9EE7541C7E
:1028C000002BF3D00021A3F13002D2B2092A01EB90
:1028D00081003FF64BAF14F8013B02EB4001002BA7
:1028E000F1D1E3E714F8013B002BDFD0A3F1440062
:1028F000342800F2E3800FF2080E5EF820F000BFEB
:10290000552A0008BD2A0008BD2A0008BD2A000873
:10291000BD2A0008552A0008BD2A0008BD2A000863
:10292000BD2A0008BD2A0008BD2A0008C52A0008E3
:10293000F9270008BD2A0008BD2A0008BD2A0008A2
:10294000BD2A0008B9280008BD2A0008BD2A0008D1
:10295000F9270008BD2A0008BD2A0008BD2A000882
:10296000BD2A0008BD2A0008BD2A0008BD2A0008AB
:10297000BD2A0008BD2A0008BD2A00082D2A00082B
:10298000552A0008BD2A0008BD2A0008BD2A0008F3
:10299000BD2A0008552A0008BD2A0008BD2A0008E3
:1029A000BD2A0008BD2A0008BD2A0008C52A000863
:1029B000F9270008BD2A0008BD2A0008EB290008F5
:1029C000BD2A0008B9280008BD2A0008BD2A000851
:1029D000F92700082378002B3FF468AF2A2B74D125
:1029E000637858F8042B0234C4E658F8049BB9F114
:1029F000000F00F0BF8099F80030002A40F0AA8054
:102A0000002B00F0AB8047F6FE724D4601E0D3424A
:102A100005D415F8010FA9EB05030028F7D1A5EBA4
:102A20000905491B4FF0200A013D11E74FF0200A2C
:102A300058F8043B01398DF80C3021EAE17BBCF1F8
:102A4000000F03D10029CBF1000B6EDC00250DF146
:102A50000C0909E758F804EBBEF1000F5BDB002D11
:102A600000F08E802B230DF10D058DF80C300DF14B
:102A70000C0905F10B031A460193484BF346A3FBDF
:102A80000E03DB08184603EB8303AEEB430330333E
:102A9000DBB2BBF1090F864602F8013DEDDC01987F
:102AA000801A284401E012F8013F05F8013B8542F5
:102AB000F9D1A5EB0905491B013DC9E68DF80C309C
:102AC0000139BAE74FF0080E98E600220134A3F16D
:102AD0003000C0B2092802EB820E3FF64BAE14F86C
:102AE000013B00EB4E02002BF1D1DFE6CDF804B044
:102AF00099F800102D2921D0336851463046DB6803
:102B000098471BF1010BF7D1019B002DA7EB0307A1
:102B1000BFF6AAAE04E62D23CEF1000E8DF80C30E0
:102B20000DF10D050DF10C09A3E79DF80C100DF149
:102B30000C092D296546CDF804B0DDD1BAF1300F6E
:102B4000DAD132683046D268904709F1010901377D
:102B5000013DD1E713B1013A7FF557AF21EAE17B9F
:102B6000BCF1000F03D10029CBF1000B0EDC4FF0BC
:102B7000200A88E6DFF82890002A3FF444AFEAE70D
:102B80000DF10C094D4674E70F468FE64FF0200A11
:102B90004FF0FF35CDF804B0AAE700BFCDCCCCCCC8
:102BA000506100080000000000000000000000006C
:102BB00000232DE9F04FA9B0CDE90333CDE905336A
:102BC000CDE90733ADF82430002900F08B8015687B
:102BD000DFF83CA32A781AF8024014F0080407D062
:102BE0001C460134E4B22A5D1AF802301E07F8D4FC
:102BF0002D2A72D02B2A4FF00002BB4BCDE90023C7
:102C000001D10134E4B215F804B000261AF80B30F3
:102C1000002758071DD54FF00008DFF8D092424634
:102C20004B4630463946FDF731FE06460F46ABF1BE
:102C30003000FDF7C1FD3B463246FDF771FC013423
:102C4000E4B215F804B00F461AF80B3006465907DF
:102C5000E5D4BBF12E0F40F035810134E4B215F814
:102C600004B04FF000081AF80B30DFF87C925A07D6
:102C700021D500229D4B30463946FDF707FE06461A
:102C80000F46ABF13000FDF797FD32463B46FDF7AE
:102C900047FC964B06460F46404649460022FDF744
:102CA000F5FD0134E4B215F804B080461AF80B3093
:102CB00089465B07DDD4DDE9002330463946FDF760
:102CC000E5FD4B464246FDF70BFFFEF711F8884B3A
:102CD000C3F8840029B0BDE8F08F0022854BCDE910
:102CE00000238EE784498046FFF702FD804B834C2A
:102CF000D3F884700AAE3846FDF770FD81460D4664
:102D00000FCC0FC60FCC0FC694E80300502286E804
:102D1000030004F108010DEB0200FDF7A7FA3846A5
:102D20000021FEF7E1FA0446002840F0C38009269E
:102D300048462946FDF7BCFF714B98422AD89A466F
:102D4000012300270AAA52F8041B5FFA87FB81427D
:102D500005D801370A2FF6D16A4B039390E05E4500
:102D6000FAD3F21B002A18DD48462946002B00F052
:102D70008F8028AB03EBC202A2F15803D3E90023F2
:102D8000FDF7CEFB81460D46FDF792FF50454FF013
:102D90000003D6D95C4B039372E048462946009362
:102DA000FDF786FF009B002BF0D1082E0CBF0723F8
:102DB00008239F426FD0BBF1000F00F08A8028AB40
:102DC00003EB870757F87C1C731EB0FBF1F201FB85
:102DD000120602F1300C28AA22440BF1FF37FFB291
:102DE000A34402F894CC01340AAADBB202EB8707B1
:102DF0005FFA8BF1E4B20DE057F8044DB6FBF4F343
:102E000003F1300A04FB13661CF0FF030EF894ACC8
:102E10004BD014460DF1A00C621C8C420CEB040E3E
:102E2000D2B203F1FF3CE7D12E2101341CF0FF03A5
:102E30000EF8941CE4B24AD0002623442B4F5FFACC
:102E400083FAFDF7A9FC02460B4648462946FDF7E2
:102E500065FB32463B46FDF719FD0D468146FDF701
:102E600027FF611C28AB2344CCB200F1300254454B
:102E700003F8942CE5D1002328AA92440AF8943C44
:102E80004046224903AAFFF733FC29B0BDE8F08F82
:102E9000FDF70EFF89E7202128AB1A19013E013406
:102EA000F6B202F8941CE4B285E728A90A4402F8B5
:102EB000943CE5E72D230124082605F100458DF813
:102EC0000C3035E74FF00008DFF81C90F3E6A2461F
:102ED000D1E72E2128AA2244731E0134DBB202F866
:102EE000941CE4B2A8E700BF0000F03F00002440BB
:102EF000000800200000F0BF58610008C060000812
:102F0000FFC99A3B4F5646004D535A009461000842
:102F100049740008000000000000000000000000EC
:102F200038B5044615461049FFF7E2FB0F49204625
:102F3000FFF7DEFB286802F03DFF83B213B1012BDF
:102F400009D038BD1A4620460949FFF7D1FB1022A7
:102F5000084B1A6138BD82B205492046FFF7C8FB0D
:102F60001022044B5A6138BDA8610008C8610008EE
:102F7000F4610008000C01400000000000000000A7
:102F800038B5044615460B49FFF7B2FB0A492046FF
:102F9000FFF7AEFB286802F00DFF85B2012D00D9C6
:102FA00038BD2A4620460549FFF7A2FB044B1D8089
:102FB00038BD00BF10620008446200087C6200084F
:102FC0009C0800200000000000000000000000003D
:102FD00010B504460649FFF78BFB064B064A204610
:102FE000BDE810401B8812680449FFF781BB00BF91
:102FF000A06200086C12002068120020B062000875
:1030000070B504460D4D0E49FFF772FB20460D4981
:10301000FFF76EFB2868802103685B6A984740F2DF
:103020001313942208490948FFF762FB2868942289
:10303000BDE87040036806495B68184730100020FF
:10304000D0620008F062000804630008B40D00209C
:103050000008002000000000000000000000000048
:103060002DE9F04F05460C4685B02E491746FFF76F
:103070003FFB28462C49FFF73BFB032C02D005B051
:10308000BDE8F08F386802F095FEDFF8ACB001467D
:103090005846FEF76DFE002282461146786802F01F
:1030A00015FF002281461146B86802F00FFF0FFAA3
:1030B0008AF45FFA80F81FFA89F2234600922846C4
:1030C00042461A49FFF714FBDBF808309C4221D135
:1030D0001FFA89F6BEB15644DFF86090B6B22146B9
:1030E0005846FEF745FED9F800008DF80F800368BA
:1030F00001341FFA84FA01225B680DF10F01984731
:10310000B24524B2EBD128460949FFF7F1FA05B0E0
:10311000BDE8F08F28460749FFF7EAFA05B0BDE899
:10312000F08F00BF3463000868630008A0630008E4
:10313000E4630008CC630008341000203010002045
:103140002DE9F84319498046FFF7D2FA942218492D
:103150001848FFF7CDFA042217491648FFF7C8FAB6
:10316000142216491348FFF7C3FA0024144FDFF85E
:103170005C90144E0F4D07E03A5D3146284601340D
:10318000FFF7B6FA942C07D02307F5D1224649461B
:103190004046FFF7ADFAEFE70B490648FFF7A8FAFC
:1031A000BDE8F843C820FFF71BB800BFF86300086C
:1031B00014640008B40D002028640008346400087A
:1031C000000800204C640008B46700084064000850
:1031D00070B504460D4682B01B491646FFF788FAC3
:1031E00020461A49FFF784FA022D01D002B070BDC3
:1031F000306802F0DFFD164D01462846FEF7B8FDA7
:10320000AB6802B29A4205D020461249FFF770FA25
:1032100002B070BD20461049FFF76AFA0F4B10222A
:10322000002170681D6802F051FE8DF807002B68C0
:1032300001225B680DF1070128469847204608499E
:10324000FFF756FA02B070BD5464000868640008C5
:1032500034100020CC63000898640008301000206F
:10326000E46300080000000000000000000000000F
:103270002DE9F0471446A2B032490546FFF738FA67
:10328000206802F097FDDFF8D49087B23A462E49C5
:103290002846FFF72DFAD9F8000039460368DFF811
:1032A000C0A05B6A98478022002102A802F01AFEA3
:1032B000DAF80C20D9F8003051689B680191126847
:1032C0002249009228468022FFF712FA204921481D
:1032D000FFF70EFAD9F800008022036802A99B6864
:1032E00098470024DFF87C801B4E0AE022AB234481
:1032F0003146284613F8802C0134FFF7F9F9802C69
:1033000007D02307F2D1414628463A19FFF7F0F9D2
:10331000ECE70F490F48FFF7EBF9DAF80C20D9F882
:10332000003051689B68019111682846224600913F
:103330000649FFF7DDF906490648FFF7D9F922B03B
:10334000BDE8F087A4640008E0640008FC6400089D
:10335000B4670008B40D00204C6400083010002051
:10336000341000204064000800000000000000004D
:1033700010B531B1106802F01DFD0A4BA3F88200B0
:1033800010BD04460849FFF7B3F920460749FFF787
:10339000AFF9044B2046BDE81040B3F88220044941
:1033A000FFF7A6B900080020386500086865000826
:1033B000846500080000000000000000000000001C
:1033C000012902D00A49FFF793B908B5106802F045
:1033D000F1FC084A83B2B2F88200074A00FB03F00E
:1033E000A2FB0030BDE80840C0F38F10FEF710BA12
:1033F0009C65000800080020D34D6210000000000A
:10340000012910B50BD004460A49FFF771F90A4BA0
:103410002046BDE810401A880849FFF769B91068CE
:1034200002F0C8FCBDE81040034B80B21880FEF7E4
:10343000EFB900BFE86500087412002008660008B4
:10344000012902D01249FFF753B938B5106802F0CC
:10345000B1FC202181F311880E4A441E93699060CB
:10346000DC62002080F3118841F2883395680A4CB1
:1034700003FB05F3A4FB03435B0B81F31188D168C5
:10348000946941F00801D160236480F3118838BD4C
:103490001C660008980D00205917B7D100000000E5
:1034A000484B2DE9F0470C46054618881746FEF7AD
:1034B0003FF9631E012B06464ED8012C3868424C5A
:1034C00027D0267802F076FC8046786802F072FCFD
:1034D0001FFA88F804EB4808A8F842003B49284640
:1034E000FFF706F97EB1013EF3B2394F04F142060F
:1034F00006EB4306403434F8022F39462846FFF7DE
:10350000F7F8B442F7D12846BDE8F0473149FFF754
:10351000EFB8277802F04EFC04EB4606A6F842000E
:103520002A492846FFF7E4F8002FECD07E1EF3B2BC
:10353000274F04F1420606EB4306403434F8022FCD
:1035400039462846FFF7D4F8B442F7D12846BDE8FB
:10355000F0472049FFF7CCB81F492846FFF7C8F8C5
:10356000DFF864901D492846FFF7C2F81C49284639
:10357000FFF7BEF899F8004028461A49FFF7B8F857
:103580008CB1013CE4B209F14207DFF8448007EB5B
:10359000440709F1400434F8022F41462846FFF75A
:1035A000A7F8A742F7D128460A4909EB4609FFF7D1
:1035B0009FF832462846B9F842300B49BDE8F0473B
:1035C000FFF796B87412002000080020306700084A
:1035D00008670008B46700084C66000888660008A1
:1035E000CC660008F06600081067000800000000C4
:1035F00002292DE9F84306461ED0324C3249FFF726
:1036000077F8257830462A463049FFF771F86DB1D2
:10361000013DEAB22E4FA51C05EB420534F8022FFE
:1036200039463046FFF764F8A542F7D13046BDE889
:10363000F8432849FFF75CB81068144602F0BAFB5B
:103640000546606802F0B6FB1E4CADB2278880B21A
:103650007B1E401B90FBF3F0FDF754FC8046AFB19E
:103660002846FDF74FFC2546814600242046FDF7FD
:1036700049FC4146FDF79AFC4946FDF78FFBFDF7F3
:103680005BFE0134A74225F8020FEFD1FFB23046AE
:103690001149FFF72DF8002FC8D00A4C013FFFB2A7
:1036A000A31C0E4D03EB470734F8022F2946304682
:1036B000FFF71EF8BC42F7D13046BDE8F843054994
:1036C000FFF716B80008002044670008706700087C
:1036D00080670008B467000884670008086700086E
:1036E000012910B5044613D1106802F063FBC2B281
:1036F000202A07D80C4B2046BDE810400B491A8001
:10370000FEF7F6BF2046BDE810400949FEF7F0BFBE
:103710000849FEF7EDFF044B2046BDE810401A882B
:103720000549FEF7E5BF00BF00080020006800085B
:10373000D467000890670008B86700080000000020
:1037400010B5084A084B1468196882B0CDE9001416
:10375000064B074AB3F9003012880649FEF7C8FF46
:1037600002B010BDA0080020FC08002000090020C5
:10377000C40800201C6800080000000000000000D1
:10378000F0B505460C4683B04349FEF7B1FF434907
:103790002846FEF7ADFF42492846FEF7A9FF4149FA
:1037A0002846FEF7A5FF40492846FEF7A1FF3F49FE
:1037B0002846FEF79DFF3E492846FEF799FF28461A
:1037C00022883C49FEF794FF3B4E3C4F2B68012278
:1037D00028469B680DF10701984700284BD09DF8BB
:1037E00007302B2B0FD02D2B17D0442B0FD1238834
:1037F0000A332380228831462846FEF779FF208845
:10380000FEF706F8E2E7238801332380F2E7642B12
:1038100007D123880A3B2380ECE72388013B2380E0
:10382000E8E7432B03D1238864332380E2E7632B4B
:1038300003D12388643B2380DCE74D2B04D123880C
:1038400003F57A732380D5E76D2B04D12388A3F584
:103850007A732380CEE72A2B05D1238803EB8303D9
:103860005B002380C6E72F2B0AD12288A7FB0232F8
:10387000D2082280BFE74FF4FA70FEF7B1FCAEE742
:10388000782B05D128460E49FEF732FF03B0F0BD74
:103890001F2B9BD9AEE700BF446800085C68000896
:1038A00090680008BC680008E8680008186900080B
:1038B000486900086069000880690008CDCCCCCC5C
:1038C000786900080000000000000000000000000F
:1038D0002DE9F04F0C464E4E8246378883B038466D
:1038E0001546FDF725FF012C76D03A46504649494A
:1038F000FEF7FEFE308800287BD0FDF719FF044656
:10390000454DDFF83C91DFF83C81444F04F1200B3A
:103910002246494605EB4B0B5046FEF7E9FEBBF845
:10392000023005EB4402414652885046ADF806305D
:10393000FEF7DEFEBDF8062039465046FEF7D8FEFB
:10394000BDF80600FDF764FF50460DF10601FFF7D4
:1039500017FFBDF8062050463149ABF80220FEF7AC
:10396000C7FE2B88013B9C422DDA05EB4403B3F8DC
:1039700044202C495046FEF7BBFE50462A49FEF72C
:10398000B7FE013407E09DF8053003F0DF034E2B4E
:1039900015D0592B1AD0DAF80030012250469B6816
:1039A0000DF1050198470028EDD14FF4FA70FEF7AC
:1039B00017FC9DF8053003F0DF034E2BE9D150468C
:1039C0001A49FEF795FE03B0BDE8F08F05EB4403FE
:1039D0005B88A4B2338099E7286802F0EBF90346CC
:1039E00082B2134950463380FEF782FE30880028A9
:1039F00083D150460F49FEF77BFE50460E49FEF735
:103A000077FE50460D49FEF773FE03B0BDE8F08F18
:103A100074120020A069000800080020C46A000891
:103A2000E06A0008F86A0008146B0008786900086A
:103A300088690008B4690008E4690008386A000869
:103A4000946A0008A86A0008000000000000000056
:103A50002DE9F041012982B005D0B149FEF748FEB9
:103A600002B0BDE8F0810446106802F0A3F9032813
:103A700000F29A81DFE800F0BE7F4202A9492046A9
:103A8000FEF736FEA8492046FEF732FEA74920463B
:103A9000FEF72EFEA6492046FEF72AFEA54DA649B2
:103AA0002046FEF725FEA5492046FEF721FE2046CA
:103AB0002A68A349FEF71CFEA24FDFF8A8820DF189
:103AC000070623680122314620469B689847002854
:103AD00000F04C819DF807302B2B00F0B2802D2B8D
:103AE00000F0C180752B40F0A0802B680A332B605A
:103AF0002A6839462046FEF7FBFDE2E79249204658
:103B0000FEF7F6FD88492046FEF7F2FD874920467C
:103B1000FEF7EEFD86492046FEF7EAFD8B4D86490D
:103B20002046FEF7E5FD85492046FEF7E1FD2046EB
:103B30002A688749FEF7DCFD864FDFF82C820DF1FD
:103B4000070623680122314620469B6898470028D3
:103B500000F0DB809DF807302B2B5CD02D2B56D04E
:103B6000752B4ED12B680A332B602A6839462046C4
:103B7000FEF7BEFDE5E778492046FEF7B9FD6A4944
:103B80002046FEF7B5FD69492046FEF7B1FD6849BC
:103B90002046FEF7ADFD714D67492046FEF7A8FDB2
:103BA00066492046FEF7A4FD2046B5F90020644989
:103BB000FEF79EFD634FDFF8AC810DF10706236829
:103BC0000122314620469B689847002800F0A280D9
:103BD0009DF807302B2B38D02D2B3AD0752B2AD1BE
:103BE0002B880A332B80B5F9002039462046FEF792
:103BF0007FFDE4E720465A49FFF7C2FD02B0BDE869
:103C0000F081642B0BD12B680A3B2B60ADE72B684E
:103C1000013B2B60A9E72B6801332B60A5E7552BEF
:103C20002BD12B6864332B609FE7642B15D12B6855
:103C30000A3B2B605CE7642B19D12B880A3B2B8055
:103C4000D1E72B6801332B6052E72B8801332B809F
:103C5000C9E72B88013B2B80C5E7552B13D12B6877
:103C600064332B6044E72B68013B2B6040E7552B06
:103C70000FD12B8864332B80B5E7442B0FD12B68F1
:103C8000643B2B6071E7442B11D12B68643B2B60A4
:103C90002EE7442B13D12B88643B2B80A3E72A2BE0
:103CA00015D12B6803EB83035B002B605DE72A2BA8
:103CB00015D12B6803EB83035B002B6018E72A2BDD
:103CC00017D12B8803EB83035B002B808BE72F2B13
:103CD0005ED12A68A8FB0232D2082A6046E72F2B61
:103CE0005CD12A6888FB0213D217C2EBA3022A60B8
:103CF000FFE62F2B3FD1B5F9003088FB0321DA17FF
:103D0000C2EBA10212B22A806FE74FF4FA70FEF7FD
:103D100067FA1FE74FF4FA70FEF762FA58E700BF40
:103D2000446B0008F86B00085C680008706B0008C2
:103D30009C6B0008A008002018690008486900086A
:103D4000C86B0008686C0008E06B0008FC080020E5
:103D50006069000880690008586B000800090020AD
:103D6000C408002067666666CDCCCCCC4FF4FA70F0
:103D7000FEF736FAAEE6782B06D120460D49FEF75F
:103D8000B7FC02B0BDE8F0811F2B7FF618AF2AE721
:103D9000782BF2D01F2B7FF6D4AEE6E6782BECD052
:103DA0001F2B7FF68EAEA3E620460349FEF7A0FC4C
:103DB00056E600BF78690008106C0008000000009B
:103DC000F0B5294CA7B0206880210368274F5B6AB3
:103DD000984720689422036801A99B689847244962
:103DE0002448FEF785FC0024224D234E0AE026AB32
:103DF00023443146284613F8942C0134FEF778FC0E
:103E0000942C08D02307F2D13946284604F18002C9
:103E1000FEF76EFCEBE7194D19491648FEF768FCF2
:103E2000BDF89430B5F8902016491248FEF760FCB2
:103E3000BDF8962014490F48FEF75AFC134B259AFB
:103E40009A420AD112490B48FEF752FC22462846F4
:103E500001A9FCF70BFA27B0F0BD0E490548FEF7A3
:103E600047FC27B0F0BD00BF301000203C6C0008BC
:103E7000286C0008B40D00204C64000800080020E5
:103E8000B4670008486C0008706C0008780055AAF8
:103E9000806C0008A06C000800000000000000001A
:103EA00010B504460549FEF723FC20460449FEF7F9
:103EB0001FFCBDE81040FFF783BF00BFD86C0008AF
:103EC000046D000800000000000000000000000079
:103ED000012903D0034A0449FEF70ABC12680349CA
:103EE000FEF706BC146D0008246D0008306D000854
:103EF00000292EDC10B5044682B0184A1849FEF796
:103F0000F7FB2046174A1849FEF7F2FB2046174AEE
:103F10001749FEF7EDFB2046164A1749FEF7E8FB66
:103F20002046164A1649FEF7E3FB2046154A164975
:103F3000FEF7DEFB2046154A1549FEF7D9FB154B67
:103F400020460093144A154B1549FEF7D1FB02B0E9
:103F500010BD144A1449FEF7CBBB00BF406D0008EA
:103F6000486D00085C6D00089C6D0008B06D00088D
:103F7000B86D0008CC6D0008D86D0008EC6D000825
:103F8000046E0008186E0008446E0008586E0008A1
:103F9000686E0008A46E0008806E00087C6E000841
:103FA0008C6E0008386D0008246D000800000000C9
:103FB0002DE9F04F00218146DFF824A38368DAF869
:103FC0001420BD48A1B0D9E900B4906119705846D9
:103FD000D9E90223CDE908110A91B849CDE90623B0
:103FE0000394FEF785FB5846B549FEF781FBDAF8E6
:103FF000143093F8213013F0040340F093800293BF
:104000000DF14008CDF80090002547462E46584651
:10401000AC49FEF76DFB009BDFF8C8921C68236873
:10402000012220469B680DF113019847002843D0D8
:104030009DF813101B2928D05EB15B293AD035B109
:10404000412900F0C480422900F0878000252E46D7
:10405000E5E708291BD07F2919D00D2900F0D08071
:104060000E2900F09780102900F0BA801F29D6D9B8
:104070000DF17F039F42D2D223682046DB68984728
:104080009DF8133007F8013BC9E70126C7E747450C
:10409000C5D0236808212046DB6898472368202183
:1040A0002046DB689847236808212046DB68013FEB
:1040B0009847B4E73546B2E7C820FEF791F805A95E
:1040C0004046FEF7E5FA05A90546002000260BACA0
:1040D000FEF7DEFA50B1042E31D044F8040B05A9E6
:1040E00000200136FEF7D4FA0028F4D120AB03EB10
:1040F000860343F8540C75B128467349FCF72CF934
:10410000002840F01381002E00F0F38058466E4ADC
:104110006E49FEF7EDFADAF8143093F821305B07B8
:104120007FF572AF202383F3118800216848FDF7E3
:10413000CFFC0020FDF7ECFE21B0BDE8F08F584623
:104140006449FEF7D5FA00230F93DAF8143093F898
:1041500021305B077FF558AFE4E70122414606A80E
:10416000FEF71EF9061E45D18DF8406000250E238E
:10417000502259492046FEF7BBFA58492046FEF71F
:10418000B7FA42464946204608EB0607FEF7B0FA62
:104190002E4644E70122414606A8FEF701F9031E18
:1041A00001932AD18DF840600E23502220464A49BF
:1041B000FEF79EFA20464949FEF79AFA019B4246CD
:1041C0004344494620461F46FEF792FA27E700225D
:1041D000414606A8FEF7E4F8061E7FF737AFC5E7AD
:1041E0003246414606A8FEF7DBF8031E01937FF72F
:1041F00016AFD9E7FFF62AAFB8E7FFF610AFD3E75F
:1042000020462E49FEF774FA079DA7EB08046B1EA3
:104210009C424DDA631E18F8031008EB03022029B4
:104220000AD1002C03DC43E0002B41D0013B12F803
:10423000011D1C462029F7D0002C39DD099906986C
:10424000089BCA1A5E1A01329942A5EB020206F1D6
:10425000FF3609DB944209DBC25C134401339D4203
:10426000D8BF5B1B0893ECE7B442F5DA6D1A013D49
:104270000131AC42084437DB2A464146FBF7F6FFE2
:104280000698621B08EB0501FBF7F0FF099A0699F7
:10429000631C8C540999079A0B4493420993029921
:1042A000A8BF9B1A069AA8BF0993D15400230A936A
:1042B000029B3B7003E700BFB06E0008B4670008C4
:1042C000B86E0008CC6E0008086F0008246D000866
:1042D00070120020F06E0008DC6E0008E86E000826
:1042E000300E0020EC6E000822464146FBF7BEFF70
:1042F000CCE758463249FEF7FBF9324C324A334D8F
:1043000029465846FEF7F4F954F8082F002AF7D149
:10431000039B8BBB58462E49FEF7EAF9DAF81430B6
:1043200093F821305B077FF56FAEFBE6254C2648FE
:1043300002E054F8080F88B12946FCF70DF8002870
:10434000F7D16368314658460BAA9847DAF814301B
:1043500093F821305B077FF557AEE3E6039CECB1A1
:10436000206818B91AE054F8080FB8B12946FBF7CD
:10437000F3FF0028F7D1E4E7039C2268002AC9D0A4
:10438000124D29465846FEF7B3F954F8082F002A73
:10439000F7D158460E49FEF7ABF9BFE72A460D495B
:1043A0005846FEF7A5F958460B49FEF7A1F9DAF889
:1043B000143093F821305B077FF526AEB2E600BFDC
:1043C000106F000890730008386D0008206F000817
:1043D000B4670008EC6E0008246F000800000000BD
:1043E000EFF30983203383F30988002383F31188D3
:1043F000704700BF00000000000000000000000047
:10440000202383F31188FDF783BD00BF0000000067
:1044100030B4012400250C4A1068516903685A60C1
:1044200080F820408C681360506181F8205000E0D3
:104430001B689A689442FBD330BC5A68C1E90032C9
:1044400011605960FBF7FCBE300E00200000000038
:1044500070B51B4D014620236E6983F31188C36834
:104460000068B363884225D0F46B4BB11A6893425D
:1044700003D09268944238BF1446DB68002BF5D114
:104480000368826BB4600B605960C1E9020281630A
:10449000FDF706FB2A686B6992689B689A4203D80D
:1044A000002383F3118870BDFFF7B2FF002383F36D
:1044B000118870BD00238360002383F3118870BDD1
:1044C000300E00200000000000000000000000008E
:1044D000002932DCF8B51D4C054604F10C00FDF74F
:1044E000AFFC63686BB300242246274659681B68FB
:1044F0008C4238BF0C4601370A44002BF6D1D60057
:10450000E4001348FFF7A4FF124B28465A681B68C3
:104510001149D21AFEF7ECF83A4628460F49FEF741
:10452000E7F8324628460E49FEF7E2F822462846CA
:10453000BDE8F8400B49FEF7DBB80B4A0B49FEF724
:10454000D7B81C461E461F46DBE700BFD40F00202D
:10455000E00F0020C80F0020306F0008506F0008E7
:10456000686F0008886F00082C6F0008246D000831
:10457000202282F3118890F82230013B80F822300B
:10458000036A03F0FF130F2B03D0002383F311887A
:10459000704770B5D0E90343DC60C4680021236133
:1045A00081F3118890F8213003F00303012B0CD024
:1045B000022B00D070BD036CC06982F311881A68A9
:1045C0000260186081F3118870BDC56955E9024326
:1045D0000733DB0804F10C0645F8043C304604348C
:1045E000FDF72EFC2346A5F108019C421A6801D074
:1045F000994202D91AB1914201D31346F5E755F811
:10460000044C45F8082C196055F8080C621C01EBA5
:10461000C204A04211D05868421C03EBC20291426E
:1046200004D03046BDE87040FFF712BF55E90212D2
:1046300001321044C3E90010F3E711C8224445E9F0
:104640000202E8E700000000000000000000000097
:104650004FF0FF340020124A2DE98048166914619A
:10466000166910611669D668D460D468D060D468C1
:10467000D4690C4D44F08054D461D469D4690146A6
:1046800044F00064D461D2692C68074A44F4807411
:104690002C600346C2E90000044C054D87B00CE0D5
:1046A0000010024000700040F00F0020080002409F
:1046B0007C71000805EB4100446850180831382926
:1046C00023608360F6D14FF0FF3160244FF480788F
:1046D0004FF0800B4FF0400A4FF40075D04A4FF076
:1046E000883E5160CF4AD04E82F80643C2F880A17E
:1046F000C2F800A082F80743C2F880B1C2F800B047
:1047000082F80843C2F88081C2F8008082F8094329
:10471000C2F8805115604FF4806582F80A43C2F8F0
:10472000805115604FF400050120B14682F817430F
:10473000C2F88051156005F17E5582F8284305F5D1
:104740000435C2F88481C2F80480D5F81880B74CCB
:1047500048F07D08C5F81880DFF82083D5F818A048
:10476000E160C4F80480A8F56458A8F13008C4F8E2
:10477000008008F5725808F13008C4F80C14C4F829
:104780000484C4F80084DFF8F88204F58064C8F873
:104790000C10C8F804E0C8F800E0DFF8E882C4F8BC
:1047A0000C18C4F804E8C4F800883072C4F80C1C73
:1047B000C4F804ECC4F800EC9D4CDFF8CC8249F856
:1047C000044B9C4CDFF8C4E2C8F8344008F10C04F8
:1047D000C8E90344984CDFF8B8A2CEF80C404FF07B
:1047E0008044C6F80490DFF8AC92CAF80C4004F597
:1047F0000064C9F8184006F10C044FF0040CC6E937
:10480000034410248EF8000088F80000CEF804302D
:104810008AF8000089F8000089F810C0C8E90B3355
:10482000C8F80430C8F81430C8F81C30CAF804308E
:10483000C9F80430C9F80C307361B463EC69B36231
:1048400044F00204EC617D4CED696568F66245F464
:1048500080553665656048F69F45794C6746A56288
:104860004FF6FF75E562A3616363E36063606061B7
:1048700020604FF0005406F1740082F81DB33064DC
:104880007048714DF0647148C2F88041706706F15C
:104890005400C6E90800B06106F16400C6E91100E1
:1048A000F061F06306F13000C6E90C00146068485E
:1048B000684C694AC5E90055206004F10C00C4E960
:1048C000030002F1100010611420906102F1240035
:1048D000506202F1280090621C20C2F81CC0C2F88D
:1048E00034C01063DFF8B0C102F14000106405F17C
:1048F0001800C5E90600DFF8A4B1C2F820C0C2F86C
:1049000038C05648DFF898C102F13C0EC0E900BC3F
:104910004FF0000B4FF0000CC2F83CE002F1440EE7
:10492000C5E90235C4E90133C2E900222D612962DB
:10493000AB84636193605361D362C2F844E0CDE914
:1049400004BCCDE9013300912B6703936846FDF762
:1049500027F86846FCF7FCFF013FF7D180200121D2
:104960003F4B009AC5E90D05A866DFF838E12869D4
:104970002A6703F1280C03F12C02C5E9187785F8A2
:104980004D7085F84E10C5F844E0E8634FF0200BF9
:10499000C360C5E90433C5E915C285F84C10AF649E
:1049A000EA658BF3118862B64FF6FF0C10202D4B91
:1049B0002D4AD96801EA0C010A430CF1604CDA6017
:1049C000ACF60F3CDCF80C20284942F08072CCF8A1
:1049D0000C200A6842F001020A60D87783F822B0FE
:1049E00087F3118862B68BF311882148FCF7E0FF4A
:1049F000FDF7DEF987F311881E4B5A6842F000720A
:104A00005A605A6842F480725A608BF311881A49CE
:104A100099F800304868012BC9E9011044E000BF53
:104A20000000024000E100E0B40D00200008014059
:104A3000F873000800540040002C0140002004E0FE
:104A40000004004001180008300E0020004400401F
:104A5000C1170008D40F0020A40E0020C80F0020AA
:104A60005C0E002000ED00E00003FA05001000E0FD
:104A7000E872000800000140C8080020B884888857
:104A80000010014044888888300D0020680D002007
:104A9000800D0020980D002021190008C813002067
:104AA000005000200072000800F0E282D9F81830AF
:104AB0001F605F639F63DF631F645F62D9F8143018
:104AC0000A6800F1FF3CB3FBF2F3D9F81800CA689A
:104AD000013B836202F00F02CB6A012AC0F82CC0AE
:104AE000436002D0022A02D1174647F001074B6902
:104AF00003F00F03012B03D0022B03D147F0200753
:104B000047F01007CB6903F00F03012B03D0022BF2
:104B100003D147F4007747F480774B6A03F00F0323
:104B2000012B03D0022B03D147F4005747F48057E1
:104B300000234FF0010B4FF0850E4FF0020C0A6B73
:104B4000076222F0FF02C0F814B00361C260C0F82F
:104B500000E0C9F80C3089F800C083F311882023E5
:104B600083F31188D9F81820D368D80705D46FF0DB
:104B7000010143EA0B031161D360002787F3118819
:104B800010224FF48071C848FDF77AF840F6B83328
:104B9000D9F80810C54A03FB01F3A2FB0323202028
:104BA0005B0B80F31188D9F80C20D9F8181042F06B
:104BB0000402C9F80C20CB6387F3118880F31188B5
:104BC000D9F81820D368190740F11883002383F31C
:104BD0001188202282F311889AF80010B44A012922
:104BE000CAF8042000F0EB82DAF80C100B604B637B
:104BF0008B634B62DAF8083050680027B3FBF0F0A3
:104C0000DAF80C3091691F61D769013821F0FF0192
:104C1000D9609862002F00F0CB82DF62117D0029FD
:104C200040F0B78240F201205421127898619960D7
:104C3000002A40F0AB8231221A6203F13802343389
:104C4000CAE90423022300228AF8003082F3118883
:104C5000202080F311884FF0050C0327DAF80C3080
:104C6000596941F0010159611A61C3F800C08AF81D
:104C7000007082F3118880F31188DAF80C10CB6889
:104C800013F0FF0011D1DAF804200861107D00282C
:104C900040F0BB829068002800F0BE8243F006031B
:104CA00012690AB143F00103CB60002383F311883A
:104CB000032208217C48FCF7E3FF202383F31188BB
:104CC000337A012B0DD14021C0207A4BDA6942F4AE
:104CD0000032DA61DB69784B83F82603C3F884116C
:104CE000596040F2A9394FF0400E4FF0010C42F2EA
:104CF0002C170022FF200221736FC3F80890C3F81D
:104D000010E0C3F814C0DF601A601F685B6886F8A3
:104D10007800317282F31188102204216748FCF771
:104D2000AFFF062210216048FCF7AAFF4FF40051A4
:104D3000634806224161FCF7A3FF62496248FDF720
:104D4000D7FC624B20221B6082F3118898F80090F8
:104D50005F4BB9F1010FD8F83470C8F804303CD17A
:104D60009A238A22534EC8F828303369C8F8242081
:104D700043F4001333613369564923F4001333615C
:104D800006203369FCF774FC034653490520C8F834
:104D90002C30FCF76DFC02464FF0500C4FF00040F9
:104DA000F369C8F8302043F40013F361D8E909230C
:104DB00042F4405143F44052F3693F4BC8F8241089
:104DC00083F81FC3C8F82820C3F88001186083F84F
:104DD00020C3C3F88491C3F804904FF4004C4FF4FF
:104DE000106600234FF6C070D8F82C104A68D8F827
:104DF0003010D1F804E007F110019160D8F83420A8
:104E0000CEF80810C7F800C03B607E605668D8F83E
:104E10000410064091F808C0486856605668DFF8EC
:104E2000D4E046F024067045566000F39B812B4B7E
:104E3000400093FBF0F32520C3F30B031062D36112
:104E40000978136802299BB200F08681032900F0DB
:104E50008081012900F079814FF0020913603B68DD
:104E6000002643F001033B6088F8009086F3118828
:104E7000102240210C48FCF703FF112280210A4830
:104E8000FCF7FEFE16491048FDF732FC154B1A7868
:104E9000182A40F0FF815868134F144B144AC3E995
:104EA00001661860DF6027E0000C01405917B7D198
:104EB000A40800200010024000E100E000080140CA
:104EC00000100140A86F0008B40D002070120020EF
:104ED000DC720008111C0008D11B000800512502DB
:104EE000CC6F000894080020C07200083410002025
:104EF00030100020A0860100C949CA48136040F262
:104F00001A47FDF7F5FBFEF75BFF4FF48041C64BF8
:104F1000C648C74A0161A3F88270C64FC3F884200F
:104F20000622C3E92277FCF7ABFEC3484946C0F826
:104F300010900622FCF7A4FE03224FF48051BF48D4
:104F4000FCF79EFE202383F311884FF0010C812192
:104F5000BB4BBC4A03F1DC07BB48C3F81471C3F870
:104F6000DC20BA4F2A69C3F8FC0003F58070C3F84F
:104F70001021C3F80811C3F83C11C3E94D66A3F82A
:104F80002091C3F8E060C3F80C51C3F81C3183F8DA
:104F900022C1C3F8187103F59471D06003F59672BD
:104FA000C3E94A12C3F830212861FCF701FF86F3F8
:104FB00011883546A64EDFF8ACA2DFF8AC92DFF8D8
:104FC000AC82A6F108074DB195F820300F2B7CD0AC
:104FD0004FF47A70FDF704F9002DF5D13046FCF757
:104FE0002FFF636838460BB917E01346596803F181
:104FF0000F054A1C25F0070503EBC202A5F1080EB8
:10500000964506D2A2EB050C4FEAEC0CBCF58C7F62
:1050100063D81A681846002AE7D13046FFF718FA15
:105020002368002B54D0082240F6C8001146984748
:10503000054600284CD040F6C80340E902438123CE
:1050400005F6C8020393CDE900A52023CDE9049815
:10505000029283F311886846FCF7AAFC012380F8CA
:1050600021300546FCF7A4FE002383F31188AFE747
:105070004FF0804C4FF0700E46F66802754BD3F837
:105080001CB04BF0040BC3F81CB0D3F81CB0D3F821
:1050900010B04BF0040BC3F810B0D3F810B02BF0E5
:1050A000040BC3F810B01B696B4BD9F818B083F828
:1050B0001EE3C3F880C1C3F800C0684BCBF81820CA
:1050C000C9F81430CBF81C20F8E42846FFF750FA52
:1050D0004FF47A70FDF784F880E773451BD240F2F5
:1050E000191103F10802AEEB0202D2108C455A608E
:1050F00009D01A68ACF58D7105F6C800CEF8D41841
:10510000CEF8D028186040F6C8033046CEE90043F8
:10511000FFF79EF993E740F21915A9420FD003F665
:10512000D8011D68521AD21003F50D61C3F8D0588A
:10513000C3F8D4289E4603F108050160E3E71D4645
:1051400055F8082B9E460260DDE723F00A039BB268
:1051500082E643F00A037FE623F008039BB243F0A4
:10516000020379E63E4EB0423FF769AEBCF1020F52
:105170007ED0BCF1030F00F08380184640F6FF7329
:105180000B26034343F40043166258E613221A62C7
:1051900053E54FF4817064211278986199605AB98F
:1051A00013221A6203F134023833CAE9042349E5B1
:1051B0004FF0FF31D96231E531221A62F2E74FF048
:1051C0008050702703F1804303F50433D96941F01F
:1051D0000101D961D969196941F0010119611969A0
:1051E00021F0010119611B691C491B4B83F81C73D9
:1051F000CAF80810C3F880011860FBE46FF00801DA
:1052000043F008031161D360E0E4906800287FF464
:1052100045AD43F0040343E543F0020340E500BF1E
:10522000DC6F0008B40D00200008002000100140D1
:10523000A4708D4020A1070000080140000C01402F
:10524000801200200122000851020008E46F0008CB
:10525000E00F00200010024000E100E000A24A043C
:10526000801A0600B06E0008B13F00088073000885
:10527000094E00EB4000B6FBF0F61846B3B27FE7EC
:10528000192303FB00F6044B4FF48040B3FBF6F305
:105290009BB275E77368FFDE005125020000000035
:1052A00000294DDC2DE9F04F274987B0054620261F
:1052B000FDF71EFA86F31188244F0022FC6894F84B
:1052C0002230013384F8223082F31188DFF888A07D
:1052D000DFF88890DFF888800BE09BF8223000220E
:1052E00001338BF8223082F311882046FFF740F912
:1052F0005C46A16994F82030002908BF494694F81B
:105300002200D4F808C05AF823E00138E269636942
:10531000CDE903E1CDE9010C414628460094FDF7B3
:10532000E7F986F31188D4F80CB0BB45D5D100233A
:1053300083F31188204607B0BDE8F04FFFF718B996
:10534000034A0449FDF7D4B9F46F0008300E002079
:10535000EC6F0008246D0008B87300085C69000851
:105360003470000800000000000000000000000091
:105370002DE9F04FD0E902C442F210779846064674
:105380002068A36902F1030E604407FB0EF7000AD0
:1053900018702068A369DFF8BCE06044FF0958700A
:1053A000AEFB0737A06987B03B090230154605936D
:1053B000FAF75CFF2069C1460C30FCF741FD202262
:1053C000D4F81080B4F814A0D4F818B082F311887F
:1053D0004FF4FA6C0027032240F2E7300021059BCE
:1053E00088F800200A33ECFB03014FF47A720023A3
:1053F000C8F80870FBF7C0FFAB1C514602905A4634
:105400004046CDE90077FCF74BFF8246013014BFE0
:105410000223052388F8003087F3118820690C30B7
:10542000FFF716F8E089FCF7DBFEBAF1000F03D0B6
:10543000504607B0BDE8F08FD9F8003030462B4415
:10544000C9F80030B1682944FCF792FC504607B017
:10545000BDE8F08F598B4F010000000000000000F4
:1054600000232DE9F04182B0144601931AB9204679
:1054700002B0BDE8F08106460D46FCF789FCB26833
:10548000A31883422ED8F36819689F890A44511ED5
:105490002144B1FBF7F1B2FBF7F38B4228D003FBB9
:1054A0000773A3EB020842462946304601ABFFF7DB
:1054B0005FFF90B9019B4544E21A974204D31FE075
:1054C000019BE21A97421BD229463A46304601AB6D
:1054D000FFF74EFF3D440028F2D0019C204602B069
:1054E000BDE8F081841ACED1204602B0BDE8F0813B
:1054F00022462946304601ABFFF73AFF019CB6E74A
:105500000AB91C46B3E72946304601ABFFF730FF26
:10551000E3E700BF00000000000000000000000002
:105520000AB9002070472DE9F04F054689B00E46B4
:105530001446FCF72DFCA968531883425BD8012C54
:105540005CD042F21073EF6804F1030C3868BA695A
:10555000084403FB0CF3000A107038683C4A01440D
:10556000DB09B869A2FB0323417038691B090C30C1
:105570000593FCF765FC2022D7F81080B7F814A03B
:10558000D7F818B082F311884FF4FA6C03224FF069
:10559000000940F2E7300021059B88F800200A331B
:1055A000ECFB03014FF47A720023C8F80890FBF774
:1055B000E3FECDE9006402905A465146404602237C
:1055C000FCF76EFE431C14BF02230523064688F831
:1055D000003089F3118838690C30FEF739FF1EB1AD
:1055E000002009B0BDE8F08FA96828462144FCF7E7
:1055F000BFFB2046F5E7441AF2D0A0E74B1C9842C7
:1056000010DD0222284607A9FFF78AFF0228E7D10A
:10561000A96828460131FCF7ABFB9DF81C302046F9
:105620003370DEE701392846FCF7A2FB0222284648
:1056300007A9FFF775FF0228D2D1A96828460231D1
:10564000FCF796FB9DF81D3020463370C9E700BF7C
:10565000598B4F0100000000000000000000000016
:105660001B4A1346116841F0010111601A68910745
:10567000FCD500201968164A01F0F901196058603C
:10568000536813F00C0FFBD11168114B41F48031BA
:1056900011601A689203FCD559680D4A41F4E8116B
:1056A0005960196841F08071196013689B01FCD53D
:1056B0001221084B0848506019605368044943F0B0
:1056C000020353604B6803F00C03082BFAD17047B8
:1056D000001002400020024000641D000000000095
:1056E0002DE9F84F6C4C666FD6F80C803368DA05FC
:1056F0009DB200F18280202383F3118815F02F0FD3
:105700004FD0664F4FF0000A07F1080908E0A806DD
:10571000D6F804B01ED4336813F02F0F9DB240D0DA
:105720002B07F4D015F0080F0CBF00218021E807EB
:1057300048BF41F02001AA0748BF41F040016B0774
:10574000384648BF41F48071FCF7C2F9A806D6F884
:1057500004B0E0D5636994F87850002B3CD0D4E9CC
:105760000832934240D06269591C013205EA0B05A8
:10577000626121621D70D4E907329A4201D3A369A4
:105780002362E0684845C6D00368E360C3F804902C
:10579000C0F824A0FCF784F9336813F02F0F9DB2F2
:1057A000BED1002383F3118818F0800F01D02A06A0
:1057B00032D418F0400F0BD06B0609D5202383F3A9
:1057C0001188D4E911239A424BD0002383F3118826
:1057D000BDE8F84FFCF77CB804213846FCF778F9AF
:1057E000D4E908329342BED16269002ABBD04FF49B
:1057F00080613846FCF76CF98DE7202383F311882C
:105800004FF40071201DFCF763F96FF480720023E0
:10581000326083F311886EE7202383F31188D4E983
:1058200011239A422AD0A26B206C591C0132A26328
:10583000A16481421F7801D3E36BA364206B184BF2
:10584000984206D000210268226353604162FCF74F
:1058500027F97760002383F3118818F0400FB7D041
:10586000AAE7A36B002BB0D010210C48FCF730F94D
:105870004FF6BF7308EA0303F360A6E7A26B002AA2
:10588000D1D008210548FCF723F94FF67F7308EAC9
:105890000303F360DEE700BFB40D0020B80D002065
:1058A000E40D0020000000000000000000000000E7
:1058B00038B5174DAB691C69DA681440E2B2D243BF
:1058C0001A61A30704D56B681B690BB1284698477A
:1058D000600704D56B689B690BB10D489847210799
:1058E00004D56B681B6A0BB109489847E20604D5DA
:1058F0006B689B6A0BB106489847E30704D56B6851
:105900009B680BB102489847BDE83840FBF7E0BF01
:10591000980D0020000000000000000000000000C2
:1059200008B50348FCF70CF9BDE80840FBF7D0BF09
:10593000800D0020000000000000000000000000BA
:1059400008B50348FCF7FCF8BDE80840FBF7C0BF0A
:10595000680D0020000000000000000000000000B2
:10596000FFF7EEBF00000000000000000000000094
:105970002DE9F8432C4D2B69EA681340DAB2D24383
:105980009B072A6103D4BDE8F843FBF7A1BF20239E
:1059900083F31188254E6B6AB28CB0699BB2816823
:1059A0009C1AA4B28C4228BF002706F1180821D304
:1059B0004FF0200900E0B28C03680A444345B284EA
:1059C000A4EB0104C268C3F80480B361C76008BFD8
:1059D000EF6087F311880069904789F31188B069F7
:1059E00081688C42E7D26B6AB28C9BB29C1AA4B2DB
:1059F0008C42DDD2404510D04FF6FF718268B384EF
:105A0000141BA1420A4628BF2246022A2CBF9B181B
:105A10000233054A9BB284605363002383F31188E9
:105A2000BDE8F843FBF754BF00040040300E0020EF
:105A3000354AF8B5D2E90C6461690E2301F45F4080
:105A4000C043776860613D68D06A25F00F053D600E
:105A5000757B376803FA05F546687D603568076829
:105A600025F00F053560457B88B2AB407B6011F4B3
:105A7000807339D19360850544BF43F0020393607E
:105A800047050AD5656843F0040325F40075656091
:105A9000256845F4007525609360060544BF43F012
:105AA00008039360450444BF43F020039360C4049B
:105AB00022D543F010030804936002D543F040035D
:105AC0009360202383F31188D06930B16FF0010116
:105AD00000234162D361FBF7E3FF002383F31188C6
