:020000040800F2
:1000000000040020390200083B0200083B020008FF
:100010003B0200083B0200083B0200083B020008CC
:100020003B0200083B0200083B020008C1440008F4
:100030003B0200083B0200083B0200083B020008AC
:100040003B0200083B0200083B0200083B0200089C
:100050003B0200083B0200083B0200083B0200088C
:100060003B0200083B0200083B020008915D0008CB
:10007000715D0008515D0008315D0008115D0008E8
:10008000F15C0008D15C00083B0200083B0200085C
:100090003B0200083B0200083B0200083B0200084C
:1000A0003B020008D15900083B020008F159000842
:1000B000B1590008015A000841590008A15B000825
:1000C000C15A00083B0200083B0200083B0200083E
:1000D0003B0200083B020008715700083B02000881
:1000E0003B0200083B0200083B0200083B020008FC
:1000F0003B0200083B0200083B0200083B020008EC
:100100003B0200083B0200083B0200083B020008DB
:100110003B0200083B0200083B0200083B020008CB
:100120003B0200083B0200083B0200083B020008BB
:100130003B0200083B0200083B0200083B020008AB
:100140003B0200083B0200083B0200083B0200089B
:100150003B0200083B0200083B0200083B0200088B
:1001600072B6274880F30888264880F30988264815
:100170004EF60851CEF200010860022080F3148888
:10018000BFF36F8F05F05CFE05F0B2FA4FF055300B
:100190001E491B4A91423CBF41F8040BFAE71C4937
:1001A000184A91423CBF41F8040BFAE719491A4A30
:1001B0001A4B9A423EBF51F8040B42F8040BF8E781
:1001C00000201749174A91423CBF41F8040BFAE757
:1001D00005F0EEFD05F02CFE134C144DAC4203DA95
:1001E00054F8041B8847F9E704F0A2FA104C114DAB
:1001F000AC4203DA54F8041B8847F9E705F010BE57
:10020000000400200008002000000008000000207A
:10021000000400200876000800080020300D0020AF
:10022000300D0020C81300206001000860010008A4
:10023000600100086001000892E700F000F8FEE7A6
:100240002DE9F04FC1F814D043699D46BDE8F08F09
:10025000002383F311882846A047002004F040F9CA
:10026000FEE704F045F900DFFEE70000844641EABE
:10027000000313F0030349D1403A23D30B68036012
:100280004B6843608B688360CB68C3600B69036114
:100290004B6943618B698361CB69C3610B6A0362FC
:1002A0004B6A43628B6A8362CB6AC3620B6B0363E4
:1002B0004B6B43638B6B8363CB6BC36340304031C9
:1002C000403ADBD230320BD30B6803604B6843609B
:1002D0008B688360CB68C36010301031103AF3D262
:1002E0000C3205D351F8043B40F8043B043AF9D2F0
:1002F000043208D0D2071CBF11F8013B00F8013BC3
:1003000001D30B8803806046704700BF082A13D3CF
:100310008B07B1D010F00303AED0C3F10403D21A9F
:10032000DB071CBF11F8013B00F8013BA4D331F8F7
:10033000023B20F8023B9FE7043AD9D3013A11F877
:10034000013B00F8013BF9D20B7803704B78437006
:100350008B7883706046704780EA010C1CF0030FB5
:1003600037D110F0030C20F0030021F0030150F806
:10037000042B08BF51F8043B0ED08CF0030C6FF037
:100380007F434FEACC0C23FA0CFC51F8043B42EAC1
:100390000C0243EA0C0300BFA2F1013C9A4201BFE8
:1003A0002CEA020C1CF0803F50F8042B51F8043B5F
:1003B000F2D04FEA02604FEA1222012828BFB0EBC8
:1003C000036F08BF1B0AF4D003F0FF03000EC01A2E
:1003D000704710F0030F0AD010F8012B11F8013B01
:1003E000012A28BF9A42F4D0A2EB030070474DF8CF
:1003F000045D50F8042B01F0030521F0030151F8CE
:10040000043B022D26D04DD822F07F45B5EB132FAB
:10041000A2F1013C2CEA020C0DD11CF0803C08BF7B
:1004200051F8043B0AD185EA0205B5EB036F0CD104
:1004300050F8042BE8E74FEA13235BE03CF07F4CD5
:1004400054D10B784FEA126554E04FEA126503F07D
:10045000FF034FE04FEA0245A2F1013C4FEA154588
:100460002CEA020CB5EB134F18D11CF0803C08BFEE
:1004700051F8043B07D185EA0205B5EB034F09D1DA
:1004800050F8042BE6E75FEA0C4C2FD10B884FEABB
:1004900012452FE04FEA03434FEA12454FEA134358
:1004A00028E000BF02F0FF05B5EB136FA2F1013C9D
:1004B0002CEA020C0DD11CF0803C08BF51F8043B23
:1004C0000AD185EA0205B5EB032F0AD150F8042BB7
:1004D000E8E74FEA13630DE012F0FF0F06D051F882
:1004E000043B4FEA122523F07F4303E04FF0000066
:1004F00020BC704705F0FF0203F0FF00012828BF71
:10050000904204BF2D0A1B0AF4D0A2EB000020BCCD
:10051000704700BF81F0004102E000BF83F000435C
:1005200030B54FEA41044FEA430594EA050F08BF8E
:1005300090EA020F1FBF54EA000C55EA020C7FEA52
:10054000645C7FEA655C00F0E2804FEA5454D4EBCF
:100550005555B8BF6D420CDD2C4480EA020281EA99
:10056000030382EA000083EA010180EA020281EAD1
:100570000303362D88BF30BD11F0004F4FEA013123
:100580004FF4801C4CEA113102D0404261EB410132
:1005900013F0004F4FEA03334CEA133302D05242B8
:1005A00063EB430394EA050F00F0A780A4F1010474
:1005B000D5F1200E0DDB02FA0EFC22FA05F28018AE
:1005C00041F1000103FA0EF2801843FA05F3594194
:1005D0000EE0A5F120050EF1200E012A03FA0EFC13
:1005E00028BF4CF0020C43FA05F3C01851EBE3713D
:1005F00001F0004507D54FF0000EDCF1000C7EEB5A
:1006000000006EEB0101B1F5801F1BD3B1F5001F97
:100610000CD349085FEA30004FEA3C0C04F10104B6
:100620004FEA445212F5800F80F09A80BCF1004FDF
:1006300008BF5FEA500C50F1000041EB045141EA61
:10064000050130BD5FEA4C0C404141EB0101013C2A
:1006500028BFB1F5801FE9D291F0000F04BF014619
:100660000020B1FA81F308BF2033A3F10B03B3F1EB
:1006700020020CDA0C3208DD02F1140CC2F10C027B
:1006800001FA0CF021FA02F10CE002F11402D8BFD9
:10069000C2F1200C01FA02F120FA0CFCDCBF41EAA5
:1006A0000C019040E41AA2BF01EB0451294330BD74
:1006B0006FEA04041F3C1CDA0C340EDC04F1140451
:1006C000C4F1200220FA04F001FA02F340EA030028
:1006D00021FA04F345EA030130BDC4F10C04C4F16E
:1006E000200220FA02F001FA04F340EA030029464E
:1006F00030BD21FA04F0294630BD94F0000F83F498
:10070000801306BF81F480110134013D4EE77FEA7A
:10071000645C18BF7FEA655C29D094EA050F08BFC6
:1007200090EA020F05D054EA000C04BF19461046A7
:1007300030BD91EA030F1EBF0021002030BD5FEAEB
:10074000545C05D14000494128BF41F0004130BD13
:1007500014F580043CBF01F5801130BD01F0004567
:1007600045F0FE4141F470014FF0000030BD7FEADA
:10077000645C1ABF194610467FEA655C1CBF0B46D5
:10078000024650EA013406BF52EA033591EA030FEC
:1007900041F4002130BD00BF90F0000F04BF0021E4
:1007A000704730B54FF4806404F132044FF0000517
:1007B0004FF0000150E700BF90F0000F04BF002190
:1007C000704730B54FF4806404F1320410F00045F6
:1007D00048BF40424FF000013EE700BF42004FEAF1
:1007E000E2014FEA31014FEA02701FBF12F07F436E
:1007F00093F07F4F81F06051704732F07F4208BF25
:10080000704793F07F4F04BF41F40021704730B52B
:100810004FF4607401F0004521F000411CE700BF77
:1008200050EA010208BF704730B54FF000050AE0FA
:1008300050EA010208BF704730B511F0004502D5FB
:10084000404261EB41014FF4806404F132045FEAFD
:10085000915C3FF4D8AE4FF003025FEADC0C18BFA6
:1008600003325FEADC0C18BF033202EBDC02C2F198
:10087000200300FA03FC20FA02F001FA03FE40EA2A
:100880000E0021FA02F11444BDE600BF70B54FF02E
:10089000FF0C4CF4E06C1CEA11541DBF1CEA13550C
:1008A00094EA0C0F95EA0C0F00F0DEF82C4481EA74
:1008B000030621EA4C5123EA4C5350EA013518BF94
:1008C00052EA033541F4801143F4801338D0A0FB81
:1008D00002CE4FF00005E1FB02E506F00042E0FB2E
:1008E00003E54FF00006E1FB03569CF0000F18BF34
:1008F0004EF0010EA4F1FF04B6F5007F64F54074DC
:1009000004D25FEA4E0E6D4146EB060642EAC6216E
:1009100041EA55514FEAC52040EA5E504FEACE2EDB
:10092000B4F1FD0C88BFBCF5E06F1ED8BEF1004FDE
:1009300008BF5FEA500E50F1000041EB045170BD5A
:1009400006F0004646EA010140EA020081EA03019E
:10095000B4EB5C04C2BFD4EB0C0541EA045170BD9A
:1009600041F480114FF0000E013C00F3AB8014F114
:10097000360FDEBF002001F0004170BDC4F100045D
:10098000203C35DA0C341BDC04F11404C4F12005DE
:1009900000FA05F320FA04F001FA05F240EA020039
:1009A00001F0004221F0004110EBD37021FA04F66F
:1009B00042EB06015EEA430E08BF20EAD37070BD29
:1009C000C4F10C04C4F1200500FA04F320FA05F088
:1009D00001FA04F240EA020001F0004110EBD3708A
:1009E00041F100015EEA430E08BF20EAD37070BDFA
:1009F000C4F1200500FA05F24EEA020E20FA04F3D3
:100A000001FA05F243EA020321FA04F001F0004181
:100A100021FA04F220EA020000EBD3705EEA430EF2
:100A200008BF20EAD37070BD94F0000F0FD101F021
:100A30000046400041EB010111F4801F08BF013C5A
:100A4000F7D041EA060195F0000F18BF704703F098
:100A50000046520043EB030313F4801F08BF013D1F
:100A6000F7D043EA0603704794EA0C0F0CEA1355DB
:100A700018BF95EA0C0F0CD050EA410618BF52EA95
:100A80004306D1D181EA030101F000414FF000009B
:100A900070BD50EA410606BF1046194652EA4306A9
:100AA00019D094EA0C0F02D150EA013613D195EA1D
:100AB0000C0F05D152EA03361CBF104619460AD165
:100AC00081EA030101F0004141F0FE4141F470016F
:100AD0004FF0000070BD41F0FE4141F4780170BD5F
:100AE00070B54FF0FF0C4CF4E06C1CEA11541DBFC4
:100AF0001CEA135594EA0C0F95EA0C0F00F0A7F8C6
:100B0000A4EB050481EA030E52EA03354FEA0131F2
:100B100000F088804FEA03334FF0805545EA131305
:100B200043EA12634FEA022245EA111545EA1065CD
:100B30004FEA00260EF000419D4208BF964244F164
:100B4000FD0404F5407402D25B084FEA3202B61A83
:100B500065EB03055B084FEA32024FF480104FF457
:100B6000002CB6EB020E75EB030E22BFB61A7546CB
:100B700040EA0C005B084FEA3202B6EB020E75EB5E
:100B8000030E22BFB61A754640EA5C005B084FEAC6
:100B90003202B6EB020E75EB030E22BFB61A754693
:100BA00040EA9C005B084FEA3202B6EB020E75EB9E
:100BB000030E22BFB61A754640EADC0055EA060E5F
:100BC00018D04FEA051545EA16754FEA06164FEAA2
:100BD000C30343EA52734FEAC2025FEA1C1CC0D14E
:100BE00011F4801F0BD141EA00014FF000004FF0DB
:100BF000004CB6E711F4801F04BF01430020B4F19C
:100C0000FD0C88BFBCF5E06F3FF6AFAEB5EB030C53
:100C100004BFB6EB020C5FEA500C50F1000041EB50
:100C2000045170BD0EF0004E4EEA113114EB5C041D
:100C3000C2BFD4EB0C0541EA045170BD41F48011F0
:100C40004FF0000E013C90E645EA060E8DE60CEAF8
:100C5000135594EA0C0F08BF95EA0C0F3FF43BAF15
:100C600094EA0C0F0AD150EA01347FF434AF95EACC
:100C70000C0F7FF425AF104619462CE795EA0C0FB0
:100C800006D152EA03353FF4FDAE1046194622E77D
:100C900050EA410618BF52EA43067FF4C5AE50EA57
:100CA00041047FF40DAF52EA43057FF4EBAE12E747
:100CB0004A0011D212F5001211D20DD56FF47873DB
:100CC000B3EB62520ED44FEAC12343F0004343EA30
:100CD000505323FA02F070474FF00000704750EA7B
:100CE000013002D14FF0FF3070474FF000007047E5
:100CF0004FEA4102B2F1E04324BFB3F5001CDCF13E
:100D0000FE5C0DD901F0004C4FEAC0024CEA507075
:100D1000B2F1004F40EB830008BF20F001007047A4
:100D200011F0804F21D113F13872BCBF01F00040A7
:100D3000704741F480114FEA5252C2F11802C2F1D9
:100D4000200C10FA0CF320FA02F018BF40F001005A
:100D50004FEAC1234FEAD32303FA0CFC40EA0C000C
:100D600023FA02F34FEA4303CCE77FEA625307D149
:100D700050EA01331EBF4FF0FE4040F44000704780
:100D800001F0004040F0FE4040F40000704700BF1A
:100D900080F0004002E000BF81F0004142001FBF30
:100DA0005FEA410392EA030F7FEA226C7FEA236C39
:100DB0006AD04FEA1262D2EB1363C1BFD21841402E
:100DC00048404140B8BF5B42192B88BF704710F0C4
:100DD000004F40F4000020F07F4018BF404211F067
:100DE000004F41F4000121F07F4118BF494292EACF
:100DF000030F3FD0A2F1010241FA03FC10EB0C00FB
:100E0000C3F1200301FA03F100F0004302D5494287
:100E100060EB4000B0F5000F13D3B0F1807F06D334
:100E200040084FEA310102F10102FE2A51D2B1F12C
:100E3000004F40EBC25008BF20F0010040EA030021
:100E40007047490040EB0000013A28BFB0F5000FA1
:100E5000EDD2B0FA80FCACF1080CB2EB0C0200FA57
:100E60000CF0AABF00EBC25052421843BCBFD040A6
:100E70001843704792F0000F81F4000106BF80F420
:100E800000000132013BB5E74FEA41037FEA226CE3
:100E900018BF7FEA236C21D092EA030F04D092F0AE
:100EA000000F08BF0846704790EA010F1CBF0020E2
:100EB000704712F07F4F04D1400028BF40F000403F
:100EC000704712F100723CBF00F50000704700F05F
:100ED000004343F0FE4040F4000070477FEA226286
:100EE00016BF08467FEA23630146420206BF5FEA57
:100EF000412390EA010F40F4800070474FF0000357
:100F000004E000BF10F0004348BF40425FEA000C1D
:100F100008BF704743F0964301464FF000001CE0C5
:100F200050EA010208BF70474FF000030AE000BF1B
:100F300050EA010208BF704711F0004302D5404259
:100F400061EB41015FEA010C02BF844601460020CB
:100F500043F0B64308BFA3F18053A3F50003BCFAE6
:100F60008CF2083AA3EBC25310DB01FA02FC634493
:100F700000FA02FCC2F12002BCF1004F20FA02F29A
:100F800043EB020008BF20F00100704702F120028D
:100F900001FA02FCC2F1200250EA4C0021FA02F2EE
:100FA00043EB020008BF20EADC7070474FF0FF0CF3
:100FB0001CEAD0521EBF1CEAD15392EA0C0F93EAEE
:100FC0000C0F6FD01A4480EA010C400218BF5FEA90
:100FD00041211ED04FF0006343EA501043EA511103
:100FE000A0FB01310CF00040B1F5000F3EBF4900FD
:100FF00041EAD3715B0040EA010062F17F02FD2A01
:101000001DD8B3F1004F40EBC25008BF20F00100E3
:10101000704790F0000F0CF0004C08BF49024CEAFA
:10102000502040EA51207F3AC2BFD2F1FF0340EA8C
:10103000C250704740F400004FF00003013A5DDCFD
:1010400012F1190FDCBF00F000407047C2F100023E
:10105000410021FA02F1C2F1200200FA02FC5FEA2B
:10106000310040F1000053EA4C0308BF20EADC7075
:10107000704792F0000F00F0004C02BF400010F4E7
:10108000000F013AF9D040EA0C0093F0000F01F094
:10109000004C02BF490011F4000F013BF9D041EAB6
:1010A0000C018FE70CEAD15392EA0C0F18BF93EAB8
:1010B0000C0F0AD030F0004C18BF31F0004CD8D1E2
:1010C00080EA010000F00040704790F0000F17BF69
:1010D00090F0004F084691F0000F91F0004F14D0AF
:1010E00092EA0C0F01D142020FD193EA0C0F03D107
:1010F0004B0218BF084608D180EA010000F000400A
:1011000040F0FE4040F40000704740F0FE4040F4E4
:10111000400070474FF0FF0C1CEAD0521EBF1CEA83
:10112000D15392EA0C0F93EA0C0F69D0A2EB0302A1
:1011300080EA010C49024FEA402037D04FF080533B
:1011400043EA111143EA10130CF000408B4238BF00
:101150005B0042F17D024FF4000C8B4224BF5B1A0E
:1011600040EA0C00B3EB510F24BFA3EB510340EA5C
:101170005C00B3EB910F24BFA3EB910340EA9C000A
:10118000B3EBD10F24BFA3EBD10340EADC001B017A
:1011900018BF5FEA1C1CE0D1FD2A3FF650AF8B421E
:1011A00040EBC25008BF20F0010070470CF0004C2B
:1011B0004CEA50207F32C2BFD2F1FF0340EAC25056
:1011C000704740F400004FF00003013A37E792F017
:1011D000000F00F0004C02BF400010F4000F013A75
:1011E000F9D040EA0C0093F0000F01F0004C02BF70
:1011F000490011F4000F013BF9D041EA0C0195E7D9
:101200000CEAD15392EA0C0F08D142027FF47DAF71
:1012100093EA0C0F7FF470AF084676E793EA0C0F61
:1012200004D14B023FF44CAF08466EE730F0004C5F
:1012300018BF31F0004CCAD130F000427FF45CAFEF
:1012400031F000437FF43CAF5FE700BF4FF0FF3C5D
:1012500006E000BF4FF0010C02E000BF4FF0010CB0
:101260004DF804CD4FEA40024FEA41037FEA226C79
:1012700018BF7FEA236C11D001B052EA530C18BF9B
:1012800090EA010F58BFB2EB030088BFC81738BF00
:101290006FEAE17018BF40F0010070477FEA226CEE
:1012A00002D15FEA402C05D17FEA236CE4D15FEAEA
:1012B000412CE1D05DF8040B704700BF844608461E
:1012C0006146FFE70FB5FFF7C9FF002848BF10F1DF
:1012D000000F0FBD4DF808EDFFF7F4FF0CBF012024
:1012E00000205DF808FB00BF4DF808EDFFF7EAFFAE
:1012F00034BF012000205DF808FB00BF4DF808ED69
:10130000FFF7E0FF94BF012000205DF808FB00BF5D
:101310004DF808EDFFF7D2FF94BF012000205DF8E3
:1013200008FB00BF4DF808EDFFF7C8FF34BF0120F0
:1013300000205DF808FB00BF42000ED2B2F1FE4F64
:101340000BD34FF09E03B3EB126209D44FEA002394
:1013500043F0004323FA02F070474FF0000070475B
:1013600012F1610F01D1420202D14FF0FF307047FC
:101370004FF00000704700BF53B94AB9002908BFB9
:1013800000281CBF4FF0FF314FF0FF3000F06EB966
:10139000ADF1080C6DE904CE00F006F8DDF804E0CC
:1013A000DDE9022304B070472DE9F047089E0D46A1
:1013B00004468E46002B40F083808A42174647D968
:1013C000B2FA82F34BB1C3F1200105FA03FE20FA11
:1013D00001F19F4041EA0E0E9C404FEA1748BEFBC8
:1013E000F8FC1FFA87F908FB1CE20CFB09F0210C42
:1013F00041EA024290420AD9BA180CF1FF3180F05A
:101400001881904240F21581ACF1020C3A44121A54
:10141000B2FBF8F008FB102200FB09F1A4B244EA89
:101420000244A14209D93C1900F1FF3280F0038146
:10143000A14240F2008102383C44641A002140EA93
:101440000C401EB10022DC40C6E90042BDE8F08736
:1014500002B9FFDEB2FA82F3002B4FD18D1A0121BF
:101460004FEA124E1FFA82F8B5FBFEFC0EFB1C552C
:1014700008FB0CF0220C42EA0545A84207D97D1969
:101480000CF1FF3202D2A84200F2E98094462D1AF4
:10149000B5FBFEF00EFB105508FB00F8A4B244EAC1
:1014A0000544A04507D93C1900F1FF3202D2A045FE
:1014B00000F2D9801046A4EB080440EA0C40C0E7D3
:1014C0008B4208D9002E00F0B1800021C6E900054A
:1014D0000846BDE8F087B3FA83F100294BD1AB424F
:1014E00002D3824200F2B980841A65EB0303012023
:1014F0009E46002EAAD0C6E9004EA7E79F40C3F142
:101500002002D1404FEA174EB1FBFEF01FFA87F8D8
:101510000EFB101124FA02F29D4000FB08FC2A4346
:10152000150C45EA0145AC4504FA03F409D97D19C7
:1015300000F1FF3180F08F80AC4540F28C800238A2
:101540003D44A5EB0C05B5FBFEF10EFB115C01FB68
:1015500008F995B245EA0C45A94507D97D1901F16D
:10156000FF3274D2A94572D902393D44A5EB090571
:1015700041EA004178E7C1F120078B4022FA07FCDD
:101580004CEA030C25FA07F44FEA1C4EB4FBFEF9B3
:101590001FFA8CF80EFB194420FA07F309FB08FA2E
:1015A0008D401D432B0C43EA0444A24502FA01F28C
:1015B00000FA01F309D91CEB040409F1FF3048D209
:1015C000A24546D9A9F102096444A4EB0A04B4FB7C
:1015D000FEF00EFB104400FB08FAADB245EA0444ED
:1015E000A24508D91CEB040400F1FF352DD2A24519
:1015F0002BD90238644440EA0940A0FB0289A4EBDD
:101600000A044C45C6464D4619D316D05EB1B3EB1D
:101610000E0264EB050404FA07F722FA01F31F43F4
:10162000CC40C6E900740021BDE8F0873146304661
:101630000CE78C46EBE61046FFE64345E6D2B8EBF6
:10164000020E69EB0C050138E0E72846D3E71146A6
:101650008CE78146B9E7084673E7084649E7ACF1ED
:10166000020C3D4413E702383C4424E7704700BFB6
:101670002DE9F0410126294C06FA00F522681542B1
:1016800018BF002001D0BDE8F0810346DFF898C004
:101690002A432260DCF814009A1944F83210204FD3
:1016A000204940EA060E04EBC202516007EB03102A
:1016B000CCF814E08268D4F804E0DCF814101EEAD8
:1016C000020F4FEA031312D00E214FF0000CFE1848
:1016D0007268FF58767B45EA0E031568B14025F025
:1016E0000F05156063607960C2F800C0CBE74FF06A
:1016F000500CC27B5109890002F1604801F1604140
:1017000002F01F0201F5614106FA02F208F5614894
:1017100088F800C3C1F880210A60D5E7F00F0020E7
:1017200030720008300D0020001002400000000060
:1017300035492DE9F0410B8831F81320824258D900
:101740000446488884424FD95E1E002E12DD0023D5
:101750001A4600E04088844201EB420203F1010591
:1017600002D39288A2424DD2ABB29E421A4601EBFE
:101770004300EFDCF3B201EB43025088B2F8425071
:1017800084429788B2F8448030D9BC4238D2FFF7FF
:10179000B5FB06462046FFF7B1FB3146FFF7FCFAE2
:1017A000034628461D46FFF7A9FB04463846FFF7C7
:1017B000A5FB3146FFF7F0FA01462846FFF7AAFCE1
:1017C00005464046FFF79AFB2146FFF7E5FA01463A
:1017D0002846FFF7EBFB2146FFF7E0FAFFF7ACFDE9
:1017E00085B22846BDE8F081B1F842502846BDE8F0
:1017F000F08101EB4301B1F840502846BDE8F0818B
:101800004546F3E7DBB2B6E7000800200000000021
:101810002DE9F0410546214A108832F81030013890
:10182000AB4217D95688B54218D9002812DD0024DA
:10183000234600E04E88B54202EB430304F1010168
:1018400002D39F88BD420DD98CB2A042234602EB41
:101850004401EFDC84B22046BDE8F081002420463C
:10186000BDE8F081F0194010FFF74CFBB74280460D
:1018700028460AD9FFF746FB01464046FFF752FDCE
:101880000028E8D10134A4B2E5E7FFF73BFB0146AD
:101890004046FFF729FD0028DDD1F3E700080020CE
:1018A000202330B483F311880B4B4942D3E9004520
:1018B000281A0840821AA24207D3954205D35A60DB
:1018C000002383F3118830BC70470020002383F38A
:1018D000118830BC704700BFC80F00200000000016
:1018E000024AD36843F0C003D3607047004400400D
:1018F000114B30B42021186081F311880F4A441E27
:1019000093699060DC62002080F3118841F2883393
:1019100095680B4C03FB05F3A4FB03435B0B81F3BE
:101920001188D168946941F00401D160E36380F3C8
:10193000118830BC704700BF6C120020980D002049
:101940005917B7D10000000000000000000000009F
:1019500008B5FFF7EDFEBDE80840FFF7C9BF00BFBF
:10196000002000220249034B08801A60704700BF24
:10197000D00F00207C1200200000000000000000BA
:10198000436910B51868064C0130FFF7B7FAFFF746
:10199000D3FC044A206013880133138010BD00BFBC
:1019A00068120020D00F002000000000000000009E
:1019B0008068704700000000000000000000000088
:1019C000202383F311880D4B5B6813F4006302D16D
:1019D00083F311887047EFF309834FF08072203B47
:1019E000DA6183F30988064A116852698968926846
:1019F00091428CBF034A044A9A61704700ED00E0AF
:101A0000300E00206302000866020008000000009B
:101A1000084B10B4D3E900424942101A0840A042D2
:101A200004D3824202D310BC58607047002010BC1F
:101A3000704700BFC80F0020000000000000000039
:101A40000E4A0F4B116F5B6882685B1A9B1AC26863
:101A500030B4D0E9044541680132E418C0E90232EB
:101A6000026845F100058B4288BF43609342C0E99C
:101A7000044530BC38BF0360704700BF300E002003
:101A8000001000E000000000000000000000000066
:101A9000014B5B6883607047001000E000000000AD
:101AA000F0B4002102270125836846680469194AB9
:101AB00043F82C6C43F86C4C06684469C06803F822
:101AC000265C03F8271C03F8287C43F83C2C124DB5
:101AD00043F8684C43F8400C146943F80C0CA3F12C
:101AE0006C0043E9051143F8340C43F84C5CA3F156
:101AF0004800A3F12005A3F11C0143F8306C43F822
:101B0000384CE060106143E90851F0BC43F8181C00
:101B1000704700BF300E0020510200080000000096
:101B2000202383F3118890F82030072B0DD8DFE8AD
:101B300003F0270C0C2308040C08426A9368013355
:101B40009360D0E9003213605A60002210B44FF065
:101B5000FF3481680C4B446280F820201B689A682F
:101B60008A42FBD25A680021C0E9003210605860F6
:101B700081F3118810BC70470022436A1A60E4E7C1
:101B8000002383F311887047300E0020000000000E
:101B900000228168064B80F820201B689A688A42E0
:101BA000FBD25A68C0E9003210605860704700BF2D
:101BB000300E0020000000000000000000000000C7
:101BC000F8B50468A04221D007460D46002604E07F
:101BD0000B2A1CD02468A74218D0E3682B43E3608B
:101BE00015B123691D42F5D0D4E90103416B90F88A
:101BF00020200B430A2A4363EAD1426A1342E9D008
:101C00004662FFF7C5FF2468A742E6D1F8BD426AE5
:101C100032EA0303DED1F3E7000000000000000019
:101C2000FEE700BF00000000000000000000000010
:101C300038B5C36841681A69DD6804461540EAB2E0
:101C4000D2431A610B7D7BB96B072BD50378042B2C
:101C500025D0A9070FD4ED0705D5636820461B6979
:101C600098470323237038BDAA070AD50378042BAD
:101C700004D06B07EFD504232370ECE78B68D3B156
:101C800098476B07E7D52378042BF4D16168CB68BC
:101C9000002BF0D02046984704232370DBE78B68A5
:101CA00033B19847A907D6D52378042BE3D1EDE7C4
:101CB000A807ECD4CFE76A07E9D4CCE7000000001E
:101CC0000B0712D4D0E90C200E2330B4D2E9005413
:101CD000216821F00F012160527B93406B604368C3
:101CE00030BC43F400734360704772B6014B024A44
:101CF0009A62FEE7300E0020C86100080000000074
:101D000011F0080126D10E2270B5C46A436B6668D3
:101D1000356825F00F053560657B2468AA40626050
:101D20005A68202422F480525A601A6822F4806291
:101D30001A601A6842F400721A6084F31188C36949
:101D400023B1C16118465962FFF722FF002383F3D4
:101D5000118870BD72B6024B024A9A62FEE700BF5C
:101D6000300E0020C86100080000000000000000E4
:101D7000032AF0B42DD0042A08BF416100230827AC
:101D80001D461C461E46DFF850C01CF8022011F00C
:101D9000800F4FEA04144FEA03134FEA06164FEA86
:101DA00005150CBF44F00F04134311F4004F0CBF92
:101DB00046F00F061543013F4FEA4101E7D1426863
:101DC0001640354345600268144023430360F0BC6D
:101DD00070470161D2E700BFA07200080000000058
:101DE00030B40268437B11684468D940246801F02C
:101DF0000E010C420ED0807B074C013054F830505D
:101E000001FA03F353602DB104EBC0002B4630BC44
:101E10004068184730BC7047F00F002000000000F9
:101E200000207047000000000000000000000000DB
:101E300000207047000000000000000000000000CB
:101E40004068704700000000000000000000000033
:101E5000002203461046C3E901221A60DA60704787
:101E600010B4C4680246D4E90003181A884228BF97
:101E7000084610BC906070470000000000000000A1
:101E8000C36858681B68C01A704700BF0000000094
:101E9000002070470000000000000000000000006B
:101EA00070B40026134B8468596946628D68AC4251
:101EB0000CD880F820601B689A689442FBD970BCEB
:101EC0005A68C0E900321060586070471A4681F8BD
:101ED000206012689468A542FBD301255468C1E9CB
:101EE00000242160516080F8205070BC5861FEF7DA
:101EF000A7B900BF300E0020000000000000000065
:101F000030B40125074B59691A6881F8200014681C
:101F10001046636082F820501C6030BC5A61FEF7A6
:101F20008FB900BF300E002000000000000000004C
:101F3000F8B52023054683F31188304B80685C692F
:101F400040B3A2688368934207D290F82030826041
:101F5000062B3AD0072B25D0ABB12B4603E099686E
:101F6000A268914202D31B689D42F8D15A680620AC
:101F7000C4E9003214605C606562FFF7C1FF0023B2
:101F800083F31188F8BDD0E9003213605A60FFF77F
:101F9000FFFDE2E7A36BC5E902430023A56383F3DA
:101FA0001188F8BD466A47680168334639604F605A
:101FB00002E09968914202D31B689E42F9D15A68A7
:101FC000C0E9003210605860C7E7466A4768016898
:101FD000334639604F6002E09968914202D31B6832
:101FE0009E42F9D15A68C0E9003210605860B0686A
:101FF000A26883689A42A8D8AFE700BF300E0020DD
:1020000038B503460F4A5469A06A04F12805A8426E
:10201000636206D00368A362FFF7BAFDA06AA84214
:10202000F8D194F822303BB994F821309B0703D1C2
:10203000D4E90332D3601A610F20BDE83840FFF7BE
:102040005FBF00BF300E0020000000000000000055
:102050002DE9F0414B1C86B053D04B4D07462E4620
:102060004A4856F8184F426A0229DFF824C16B69C2
:1020700038BF0221B442059392B2CDF810C067D0A8
:10208000B5F824C0A2EB0C0293B2C918A3682CD3F4
:102090002468C91AA3688B42FAD34FF0FF326368F1
:1020A0000DF10408CDE90143C3F80080C4F80480B1
:1020B0000391A368591AA1602A623846FFF720FFEE
:1020C000049B6BB1AB69434523D0DDE9013213605A
:1020D000019BB3425A6003D09A6803990A449A60FC
:1020E0006B69586A06B0BDE8F0819942D3D24FF6C9
:1020F000FF72914294BF8C4494441FFA8CF2426365
:10210000C9E7FFF7FDFE204D6B69586A06B0BDE8D0
:10211000F0810023019AB242AA615660049330D044
:10212000936803981949034493604A6AA98C521A28
:1021300092B29342D4D9981A012820D94FF6FF724F
:10214000934228BF1346114A0B449BB25363C7E71F
:102150004FF6FF73994294BF5318D3184FF0000CF9
:1021600002249BB20DF10408CDE90166C5E9068899
:10217000AA8403914363C0F810C0C4609DE7931C18
:10218000E1E7024AD360ABE7300E002000040040D4
:10219000211B0008000000000000000000000000FB
:1021A00061B10346074A10B4526944680420C2E989
:1021B0000034226010BC5A60FFF74ABF4FF0FF3076
:1021C000704700BF300E002000000000000000003B
:1021D000F8B504460F461646202383F3118805E020
:1021E00031462046FFF7DCFF002817DBA568002DED
:1021F000F6D06269A368511C013B6161A36017704E
:10220000D4E904329A4224BFE3686361E3690BB105
:1022100020469847002080F31188F8BD85F3118887
:10222000F8BD00BF0000000000000000000000003A
:102230003030FFF7CDBF00BF0000000000000000FD
:102240004FF0FF323030FFF7C3BF00BF0000000087
:1022500070B5202305460E4683F3118805E031460C
:102260002846FFF79DFF002818DBAC68002CF6D04D
:10227000A969AB6828694A1C013B8242AB6028BF50
:10228000EB68AA610C7828BFAB61EB690BB12846FB
:102290009847002383F31188204670BD84F311888A
:1022A00070BD00BF00000000000000000000000042
:1022B0000C30FFF7CDBF00BF0000000000000000A1
:1022C0004FF0FF310C30FFF7C3BF00BF000000002C
:1022D00008B50146202383F311880820FFF7B8FED4
:1022E000002383F3118808BD0000000000000000F7
:1022F0004FF0000A2DE988481B4B1C4A5B691C4CB7
:10230000DFF880801B4E1C4DDFF87CB01B4FDFF8E0
:102310007C909A61238801339BB2042B238005D9DA
:102320000022FB6883F00203FB602280B8F80030D3
:10233000B3B12888FEF7E6FD01463068FEF7EAFEF5
:102340000023DBF884102B80C6F800A0FEF72EFED9
:1023500001464846FEF7DEFEFEF7EEFF084B18800A
:10236000C820FFF7B5FFD5E7300E0020D461000884
:10237000D20F00207C120020D00F0020000C014062
:102380007012002066100020000800204054894C84
:102390002DE9F042002449000184054691461F467C
:1023A000416B846084F311882B6BD5E90A2E5B683E
:1023B000334E1A60DEF80420C3F80C905F606B6A3D
:1023C000B4461360069B2020D360079B5360726A5B
:1023D00092B201E084F3118880F311888B699E0723
:1023E00002D40B689B051FD5DCF824309B1A9BB2E6
:1023F000632BEFD90E23D5E90B21D1E900542068D6
:1024000020F00F002060497B506803FA01F16960F9
:102410000168146821F00F0101604FF0FF30527B1A
:1024200093406360BDE8F0822B464A68154842F449
:1024300000724A600A68406942F480720A6043F898
:102440001C0F436208990320FFF702FE0028E9D021
:10245000D5E90B240E236568296821F00F01296056
:10246000617B256803FA01F1546869602168156889
:1024700021F00F012160527B93406B60BDE8F08238
:1024800000040040300E00200000000000000000AA
:102490002DE9F041D0E90246B4420746884651D0C2
:1024A000D0E900C0234600211CF80350013101355A
:1024B0002B449842D8BF1B1AB342F5D1012A3D697B
:1024C0003BD0A94252DBB44253D04B1E9D4253D065
:1024D000D7E900EC002003E0C3430B449D4214D035
:1024E0001EF80430013001331C44A445D8BFA4EBCE
:1024F0000C04B442F0D11EF806405CB9012A35D173
:1025000001353D612046BDE8F08126461EF80640B3
:10251000002CF3D001354022002140463D6103F0FC
:1025200029FD7B68A2199A4210DA396801364046C3
:1025300022463144FDF79AFEE4E7002D04DD023D1A
:102540003D61BEE70021B9E70024DBE79B1B39684A
:102550005D1E01362A4631444046FDF787FE396844
:1025600008EB0500621BFDF781FECBE74FF0FF345F
:10257000C8E7D7F800E0BEE72646D7F800E0BAE79C
:102580002DE9F04F85B04FF02009CDE90232C7693F
:1025900089F31188AAB304460E464FF0000ADDF80D
:1025A0000CB0A268934598BF5D46D4E9042088BF6B
:1025B000A568A2EB0008A84544D829D2A5EB0803DA
:1025C000424631460193FDF751FE06EB0801DDF866
:1025D0000480E0684246FDF749FE4346A268E16890
:1025E000521BCB186361A2600FB12046B8478AF333
:1025F0001188ABEB050B2E4489F31188BBF1000F5A
:10260000CFD10023039883F3118805B0BDE8F08F84
:102610002A463146FDF72AFEE2686261A268521B33
:10262000A260002DE0D120460299FFF7B9FD0028F5
:10263000B7D0039BA3EB0B00002383F3118805B0F5
:10264000BDE8F08F2A463146FDF710FE62692A4444
:102650006261E3E7000000000000000000000000ED
:102660003030FFF78DBF00BF000000000000000009
:102670004FF0FF333030FFF783BF00BF0000000092
:102680002DE9F04F85B04FF02009CDE90232C7693E
:1026900089F31188002A35D004460E464FF0000A0F
:1026A000DDF80CB0A268A169934598BF5D46226928
:1026B00088BFA568A2EB0108A84544D829D2A5EB9C
:1026C0000803424630460193FDF7D0FD06EB0800B3
:1026D000DDF80480E1684246FDF7C8FD4346A26884
:1026E000E168521BCB18A361A2600FB12046B84726
:1026F0008AF31188ABEB050B2E4489F31188BBF1EB
:10270000000FCFD10023039883F3118805B0BDE8F3
:10271000F08F2A463046FDF7A9FDE268A261A26863
:10272000521BA260002DE0D120460299FFF738FD30
:102730000028B7D0039BA3EB0B00002383F3118881
:1027400005B0BDE8F08F2A463046FDF78FFDA2693F
:102750002A44A261E3E700BF00000000000000007F
:102760000C30FFF78DBF00BF00000000000000002C
:102770004FF0FF330C30FFF783BF00BF00000000B5
:1027800038B50D46B0B1044628602046104903F024
:10279000C5FC215C0444222912D020460C4903F0D8
:1027A000A1FC98B10023421C2A600370237823B156
:1027B000204638BD0C68002CE7D10024204638BDE7
:1027C0000134204603F026FC0028EBD12860EDE719
:1027D000DC610008000000000000000000000000B4
:1027E0000EB42DE9F04F86B00FAB53F8044B2246E0
:1027F00012F8011B0293002900F03E82064698461B
:1028000000270BE033683046DB68144601379847F1
:10281000224612F8011B002900F0C0802529F1D1C1
:1028200063782D2B08BFA21C13780CBF4FF0010C4E
:102830004FF0000C2B2B05BF0125537800255219B2
:10284000302B05BF9A4653784FF0200A01322A2BCD
:1028500040F0AD8058F8041B5378941C2E2B00F0E8
:102860003181002203F0DF004C2800F0B380A3F197
:10287000440EBEF1340F00F29981DFE81EF06301CF
:1028800097019701970197016301970197019701BC
:10289000970197019B0135009701970197019701D7
:1028A00095009701970135009701970197019701CE
:1028B0009701970197019701970197014F016301D4
:1028C000970197019701970163019701970197017C
:1028D000970197019B013500970197012E01970100
:1028E00095009701970135004FF0100E58F8040B32
:1028F0000DF1170300E02B468146B0FBFEF00EFB06
:10290000109B0BF13002392AC8BF0BF13702D2B24B
:10291000F14503F1FF3503F8012CECD20DF1170E50
:102920009B4673460DF10C095D1B48465B4601E072
:1029300013F8012B734500F8012BF9D1491B013D18
:1029400021EAE17BBCF1000F04D10029CBF1000B9F
:1029500000F34481002D0EDB6B1C4B4401941C469C
:10296000326819F8011B3046D2689047A145F7D16B
:102970000137019C2F44BBF1000F3FF449AF5D4686
:10298000336851463046DB689847013DF8D122460E
:1029900012F8011B5F4400297FF440AF384606B0AF
:1029A000BDE8F04F03B070474FF00A0E9EE7541C8D
:1029B000002BF3D00021A3F13002D2B2092A01EB9F
:1029C00081003FF64BAF14F8013B02EB4001002BB6
:1029D000F1D1E3E714F8013B002BDFD0A3F1440071
:1029E000342800F2E3800FF2080E5EF820F000BFFA
:1029F000452B0008AD2B0008AD2B0008AD2B0008BF
:102A0000AD2B0008452B0008AD2B0008AD2B0008AE
:102A1000AD2B0008AD2B0008AD2B0008B52B00082E
:102A2000E9280008AD2B0008AD2B0008AD2B0008ED
:102A3000AD2B0008A9290008AD2B0008AD2B00081C
:102A4000E9280008AD2B0008AD2B0008AD2B0008CD
:102A5000AD2B0008AD2B0008AD2B0008AD2B0008F6
:102A6000AD2B0008AD2B0008AD2B00081D2B000876
:102A7000452B0008AD2B0008AD2B0008AD2B00083E
:102A8000AD2B0008452B0008AD2B0008AD2B00082E
:102A9000AD2B0008AD2B0008AD2B0008B52B0008AE
:102AA000E9280008AD2B0008AD2B0008DB2A000840
:102AB000AD2B0008A9290008AD2B0008AD2B00089C
:102AC000E92800082378002B3FF468AF2A2B74D143
:102AD000637858F8042B0234C4E658F8049BB9F123
:102AE000000F00F0BF8099F80030002A40F0AA8063
:102AF000002B00F0AB8047F6FE724D4601E0D3425A
:102B000005D415F8010FA9EB05030028F7D1A5EBB3
:102B10000905491B4FF0200A013D11E74FF0200A3B
:102B200058F8043B01398DF80C3021EAE17BBCF107
:102B3000000F03D10029CBF1000B6EDC00250DF155
:102B40000C0909E758F804EBBEF1000F5BDB002D20
:102B500000F08E802B230DF10D058DF80C300DF15A
:102B60000C0905F10B031A460193484BF346A3FBEE
:102B70000E03DB08184603EB8303AEEB430330334D
:102B8000DBB2BBF1090F864602F8013DEDDC01988E
:102B9000801A284401E012F8013F05F8013B854204
:102BA000F9D1A5EB0905491B013DC9E68DF80C30AB
:102BB0000139BAE74FF0080E98E600220134A3F17C
:102BC0003000C0B2092802EB820E3FF64BAE14F87B
:102BD000013B00EB4E02002BF1D1DFE6CDF804B053
:102BE00099F800102D2921D0336851463046DB6812
:102BF00098471BF1010BF7D1019B002DA7EB0307B1
:102C0000BFF6AAAE04E62D23CEF1000E8DF80C30EF
:102C10000DF10D050DF10C09A3E79DF80C100DF158
:102C20000C092D296546CDF804B0DDD1BAF1300F7D
:102C3000DAD132683046D268904709F1010901378C
:102C4000013DD1E713B1013A7FF557AF21EAE17BAE
:102C5000BCF1000F03D10029CBF1000B0EDC4FF0CB
:102C6000200A88E6DFF82890002A3FF444AFEAE71C
:102C70000DF10C094D4674E70F468FE64FF0200A20
:102C80004FF0FF35CDF804B0AAE700BFCDCCCCCCD7
:102C9000E0610008000000000000000000000000EB
:102CA00000232DE9F04FA9B0CDE90333CDE9053379
:102CB000CDE90733ADF82430002900F08B8015688A
:102CC000DFF83CA32A781AF8024014F0080407D071
:102CD0001C460134E4B22A5D1AF802301E07F8D40B
:102CE0002D2A72D02B2A4FF00002BB4BCDE90023D6
:102CF00001D10134E4B215F804B000261AF80B3003
:102D0000002758071DD54FF00008DFF8D092424643
:102D10004B4630463946FDF7B9FD06460F46ABF146
:102D20003000FDF749FD3B463246FDF7F9FB013423
:102D3000E4B215F804B00F461AF80B3006465907EE
:102D4000E5D4BBF12E0F40F035810134E4B215F823
:102D500004B04FF000081AF80B30DFF87C925A07E5
:102D600021D500229D4B30463946FDF78FFD0646A2
:102D70000F46ABF13000FDF71FFD32463B46FDF735
:102D8000CFFB964B06460F46404649460022FDF7CC
:102D90007DFD0134E4B215F804B080461AF80B301A
:102DA00089465B07DDD4DDE9002330463946FDF76F
:102DB0006DFD4B464246FDF793FEFDF799FF884BAC
:102DC000C3F8840029B0BDE8F08F0022854BCDE91F
:102DD00000238EE784498046FFF702FD804B834C39
:102DE000D3F884700AAE3846FDF7F8FC81460D46EC
:102DF0000FCC0FC60FCC0FC694E80300502286E814
:102E0000030004F108010DEB0200FDF72FFA38462C
:102E10000021FEF769FA0446002840F0C380092625
:102E200048462946FDF744FF714B98422AD89A46F6
:102E3000012300270AAA52F8041B5FFA87FB81428C
:102E400005D801370A2FF6D16A4B039390E05E450F
:102E5000FAD3F21B002A18DD48462946002B00F061
:102E60008F8028AB03EBC202A2F15803D3E9002301
:102E7000FDF756FB81460D46FDF71AFF50454FF012
:102E80000003D6D95C4B039372E048462946009371
:102E9000FDF70EFF009B002BF0D1082E0CBF07237F
:102EA00008239F426FD0BBF1000F00F08A8028AB4F
:102EB00003EB870757F87C1C731EB0FBF1F201FB94
:102EC000120602F1300C28AA22440BF1FF37FFB2A0
:102ED000A34402F894CC01340AAADBB202EB8707C0
:102EE0005FFA8BF1E4B20DE057F8044DB6FBF4F352
:102EF00003F1300A04FB13661CF0FF030EF894ACD8
:102F00004BD014460DF1A00C621C8C420CEB040E4D
:102F1000D2B203F1FF3CE7D12E2101341CF0FF03B4
:102F20000EF8941CE4B24AD0002623442B4F5FFADB
:102F300083FAFDF731FC02460B4648462946FDF769
:102F4000EDFA32463B46FDF7A1FC0D468146FDF702
:102F5000AFFE611C28AB2344CCB200F130025445D3
:102F600003F8942CE5D1002328AA92440AF8943C53
:102F70004046224903AAFFF733FC29B0BDE8F08F91
:102F8000FDF796FE89E7202128AB1A19013E01348E
:102F9000F6B202F8941CE4B285E728A90A4402F8C4
:102FA000943CE5E72D230124082605F100458DF822
:102FB0000C3035E74FF00008DFF81C90F3E6A2462E
:102FC000D1E72E2128AA2244731E0134DBB202F875
:102FD000941CE4B2A8E700BF0000F03F00002440CA
:102FE000000800200000F0BFE86100085061000800
:102FF000FFC99A3B4F5646004D535A0024620008C1
:10300000FD74000800000000000000000000000047
:1030100038B5044615461049FFF7E2FB0F49204634
:10302000FFF7DEFB286802F00DFF83B213B1012B1E
:1030300009D038BD1A4620460949FFF7D1FB1022B6
:10304000084B1A6138BD82B205492046FFF7C8FB1C
:103050001022044B5A6138BD3862000858620008DB
:1030600088620008000C0140000000000000000021
:1030700038B5044615460B49FFF7B2FB0A4920460E
:10308000FFF7AEFB286802F0DDFE85B2012D00D906
:1030900038BD2A4620460549FFF7A2FB044B1D8098
:1030A00038BD00BFA4620008D862000810630008A1
:1030B000661000200000000000000000000000007A
:1030C00010B504460649FFF78BFB064B064A20461F
:1030D000BDE810401B8812680449FFF781BB00BFA0
:1030E0003463000870120020681200204463000856
:1030F00070B504460D4D0E49FFF772FB20460D4991
:10310000FFF76EFB2868802103685B6A984740F2EE
:103110001313942208490948FFF762FB2868942298
:10312000BDE87040036806495B681847301000200E
:10313000646300088463000898630008B40D0020ED
:103140000008002000000000000000000000000057
:103150002DE9F04F05460C4685B02E491746FFF77E
:103160003FFB28462C49FFF73BFB032C02D005B060
:10317000BDE8F08F386802F065FEDFF8ACB00146BC
:103180005846FEF76DFE002282461146786802F02E
:10319000E5FE002281461146B86802F0DFFE0FFA14
:1031A0008AF45FFA80F81FFA89F2234600922846D3
:1031B00042461A49FFF714FBDBF808309C4221D144
:1031C0001FFA89F6BEB15644DFF86090B6B22146C8
:1031D0005846FEF745FED9F800008DF80F800368C9
:1031E00001341FFA84FA01225B680DF10F01984740
:1031F000B24524B2EBD128460949FFF7F1FA05B0F0
:10320000BDE8F08F28460749FFF7EAFA05B0BDE8A8
:10321000F08F00BFC8630008FC6300083464000836
:10322000786400086064000834100020301000202A
:103230002DE9F84319498046FFF7D2FA942218493C
:103240001848FFF7CDFA042217491648FFF7C8FAC5
:10325000142216491348FFF7C3FA0024144FDFF86D
:103260005C90144E0F4D07E03A5D3146284601341C
:10327000FFF7B6FA942C07D02307F5D1224649462A
:103280004046FFF7ADFAEFE70B490648FFF7A8FA0B
:10329000BDE8F843C820FFF71BB800BF8C640008E6
:1032A000A8640008B40D0020BC640008C8640008CD
:1032B00000080020E06400087C680008D46400086E
:1032C00070B504460D4682B01B491646FFF788FAD2
:1032D00020461A49FFF784FA022D01D002B070BDD2
:1032E000306802F0AFFD164D01462846FEF7B8FDE6
:1032F000AB6802B29A4205D020461249FFF770FA35
:1033000002B070BD20461049FFF76AFA0F4B102239
:10331000002170681D6802F021FE8DF807002B68FF
:1033200001225B680DF107012846984720460849AD
:10333000FFF756FA02B070BDE8640008FC640008AC
:1033400034100020606400082C6500083010002054
:103350007864000800000000000000000000000089
:103360002DE9F0471446A2B032490546FFF738FA76
:10337000206802F067FDDFF8D49087B23A462E4904
:103380002846FFF72DFAD9F8000039460368DFF820
:10339000C0A05B6A98478022002102A802F0EAFDE3
:1033A000DAF80C20D9F8003051689B680191126856
:1033B0002249009228468022FFF712FA204921482C
:1033C000FFF70EFAD9F800008022036802A99B6873
:1033D00098470024DFF87C801B4E0AE022AB234490
:1033E0003146284613F8802C0134FFF7F9F9802C78
:1033F00007D02307F2D1414628463A19FFF7F0F9E2
:10340000ECE70F490F48FFF7EBF9DAF80C20D9F891
:10341000003051689B68019111682846224600914E
:103420000649FFF7DDF906490648FFF7D9F922B04A
:10343000BDE8F087386500087465000890650008ED
:103440007C680008B40D0020E06400083010002003
:1034500034100020D46400080000000000000000C8
:1034600010B531B1106802F0EDFC0A4BA3F88200F0
:1034700010BD04460849FFF7B3F920460749FFF796
:10348000AFF9044B2046BDE81040B3F88220044950
:10349000FFF7A6B900080020CC650008FC6500080D
:1034A0001866000800000000000000000000000096
:1034B000012902D00B49FFF793B908B5106802F053
:1034C000C1FC094A83B2B2F88200084A00FB03F04B
:1034D000A2FB0030C0F38F10FEF72AF9BDE80840C8
:1034E000FEF706BA3066000800080020D34D6210CF
:1034F000012910B50BD004460A49FFF771F90A4BB0
:103500002046BDE810401A880849FFF769B91068DD
:1035100002F098FCBDE81040034B80B21880FEF723
:1035200017BA00BF7C660008781200209C6600086D
:10353000012938B504460AD00C49FFF751F90C4B64
:1035400020461A680B49BDE83840FFF749B91068B2
:1035500002F078FC064D2860FEF7CAF920462A687A
:103560000549BDE83840FFF73BB900BFB066000829
:103570006C120020E0660008F866000800000000F9
:10358000484B2DE9F0470C46054618881746FEF7CC
:103590003FF9631E012B06464ED8012C3868424C79
:1035A00027D0267802F04EFC8046786802F04AFC6C
:1035B0001FFA88F804EB4808A8F842003B4928465F
:1035C000FFF70EF97EB1013EF3B2394F04F1420626
:1035D00006EB4306403434F8022F39462846FFF7FD
:1035E000FFF8B442F7D12846BDE8F0473149FFF76C
:1035F000F7B8277802F026FC04EB4606A6F842004E
:103600002A492846FFF7ECF8002FECD07E1EF3B2D3
:10361000274F04F1420606EB4306403434F8022FEC
:1036200039462846FFF7DCF8B442F7D12846BDE812
:10363000F0472049FFF7D4B81F492846FFF7D0F8D4
:10364000DFF864901D492846FFF7CAF81C49284650
:10365000FFF7C6F899F8004028461A49FFF7C0F866
:103660008CB1013CE4B209F14207DFF8448007EB7A
:10367000440709F1400434F8022F41462846FFF779
:10368000AFF8A742F7D128460A4909EB4609FFF7E8
:10369000A7F832462846B9F842300B49BDE8F04752
:1036A000FFF79EB87812002000080020F867000895
:1036B000D06700087C68000814670008506700089D
:1036C00094670008B8670008D86700080000000089
:1036D00002292DE9F84306461ED0324C3249FFF745
:1036E0007FF8257830462A463049FFF779F86DB1E2
:1036F000013DEAB22E4FA51C05EB420534F8022F1E
:1037000039463046FFF76CF8A542F7D13046BDE8A0
:10371000F8432849FFF764B81068144602F092FB9A
:103720000546606802F08EFB1E4CADB2278880B261
:103730007B1E401B90FBF3F0FDF7E4FB8046AFB12E
:103740002846FDF7DFFB2546814600242046FDF78D
:10375000D9FB4146FDF72AFC4946FDF71FFBFDF763
:10376000EBFD0134A74225F8020FEFD1FFB230463E
:103770001149FFF735F8002FC8D00A4C013FFFB2BE
:10378000A31C0E4D03EB470734F8022F29463046A1
:10379000FFF726F8BC42F7D13046BDE8F8430549AB
:1037A000FFF71EB8000800200C6800083868000801
:1037B000486800087C6800084C680008D06700086A
:1037C000012910B5044613D1106802F03BFBC2B2C8
:1037D000202A07D80C4B2046BDE810400B491A8020
:1037E000FEF7FEBF2046BDE810400949FEF7F8BFCE
:1037F0000849FEF7F5FF044B2046BDE810401A8843
:103800000549FEF7EDBF00BF00080020C8680008AA
:103810009C680008586800088068000800000000E4
:1038200010B5084A084B1468196882B0CDE9001435
:10383000064B074AB3F9003012880649FEF7D0FF5D
:1038400002B010BD9C080020F8080020FC080020F1
:10385000C0080020E468000800000000000000002C
:10386000F0B505460C4683B04349FEF7B9FF43491E
:103870002846FEF7B5FF42492846FEF7B1FF414909
:103880002846FEF7ADFF40492846FEF7A9FF3F490D
:103890002846FEF7A5FF3E492846FEF7A1FF284629
:1038A00022883C49FEF79CFF3B4E3C4F2B6801228F
:1038B00028469B680DF10701984700284BD09DF8DA
:1038C00007302B2B0FD02D2B17D0442B0FD1238853
:1038D0000A332380228831462846FEF781FF20885C
:1038E000FEF736F8E2E7238801332380F2E7642B02
:1038F00007D123880A3B2380ECE72388013B238000
:10390000E8E7432B03D1238864332380E2E7632B6A
:1039100003D12388643B2380DCE74D2B04D123882B
:1039200003F57A732380D5E76D2B04D12388A3F5A3
:103930007A732380CEE72A2B05D1238803EB8303F8
:103940005B002380C6E72F2B0AD12288A7FB023217
:10395000D2082280BFE74FF4FA70FEF7B9FCAEE759
:10396000782B05D128460E49FEF73AFF03B0F0BD8B
:103970001F2B9BD9AEE700BF0C6900082469000823
:103980005869000884690008B0690008E069000807
:10399000106A0008286A0008486A0008CDCCCCCC20
:1039A000406A000800000000000000000000000065
:1039B0002DE9F04F0C464E4E8246378883B038468C
:1039C0001546FDF725FF012C76D03A465046494969
:1039D000FEF706FF308800287BD0FDF719FF04466C
:1039E000454DDFF83C91DFF83C81444F04F1200B5A
:1039F0002246494605EB4B0B5046FEF7F1FEBBF85D
:103A0000023005EB4402414652885046ADF806307C
:103A1000FEF7E6FEBDF8062039465046FEF7E0FE0A
:103A2000BDF80600FDF794FF50460DF10601FFF7C3
:103A300017FFBDF8062050463149ABF80220FEF7CB
:103A4000CFFE2B88013B9C422DDA05EB4403B3F8F3
:103A500044202C495046FEF7C3FE50462A49FEF743
:103A6000BFFE013407E09DF8053003F0DF034E2B65
:103A700015D0592B1AD0DAF80030012250469B6835
:103A80000DF1050198470028EDD14FF4FA70FEF7CB
:103A90001FFC9DF8053003F0DF034E2BE9D15046A3
:103AA0001A49FEF79DFE03B0BDE8F08F05EB440315
:103AB0005B88A4B2338099E7286802F0C3F9034613
:103AC00082B2134950463380FEF78AFE30880028C0
:103AD00083D150460F49FEF783FE50460E49FEF74C
:103AE0007FFE50460D49FEF77BFE03B0BDE8F08F28
:103AF000781200209C66000800080020786B0008FF
:103B0000946B0008AC6B0008C86B0008406A0008A2
:103B1000506A0008686A0008986A0008EC6A0008A1
:103B2000486B00085C6B000800000000000000000B
:103B30002DE9F041012982B005D0B149FEF750FED0
:103B400002B0BDE8F0810446106802F07BF903285A
:103B500000F29A81DFE800F0BE7F4202A9492046C8
:103B6000FEF73EFEA8492046FEF73AFEA74920464A
:103B7000FEF736FEA6492046FEF732FEA54DA649C1
:103B80002046FEF72DFEA5492046FEF729FE2046D9
:103B90002A68A349FEF724FEA24FDFF8A8820DF1A0
:103BA000070623680122314620469B689847002873
:103BB00000F04C819DF807302B2B00F0B2802D2BAC
:103BC00000F0C180752B40F0A0802B680A332B6079
:103BD0002A6839462046FEF703FEE2E7924920466E
:103BE000FEF7FEFD88492046FEF7FAFD874920468C
:103BF000FEF7F6FD86492046FEF7F2FD8B4D86491D
:103C00002046FEF7EDFD85492046FEF7E9FD2046FA
:103C10002A688749FEF7E4FD864FDFF82C820DF114
:103C2000070623680122314620469B6898470028F2
:103C300000F0DB809DF807302B2B5CD02D2B56D06D
:103C4000752B4ED12B680A332B602A6839462046E3
:103C5000FEF7C6FDE5E778492046FEF7C1FD6A4953
:103C60002046FEF7BDFD69492046FEF7B9FD6849CB
:103C70002046FEF7B5FD714D67492046FEF7B0FDC1
:103C800066492046FEF7ACFD2046B5F900206449A0
:103C9000FEF7A6FD634FDFF8AC810DF10706236840
:103CA0000122314620469B689847002800F0A280F8
:103CB0009DF807302B2B38D02D2B3AD0752B2AD1DD
:103CC0002B880A332B80B5F9002039462046FEF7B1
:103CD00087FDE4E720465A49FFF7C2FD02B0BDE880
:103CE000F081642B0BD12B680A3B2B60ADE72B686E
:103CF000013B2B60A9E72B6801332B60A5E7552B0F
:103D00002BD12B6864332B609FE7642B15D12B6874
:103D10000A3B2B605CE7642B19D12B880A3B2B8074
:103D2000D1E72B6801332B6052E72B8801332B80BE
:103D3000C9E72B88013B2B80C5E7552B13D12B6896
:103D400064332B6044E72B68013B2B6040E7552B25
:103D50000FD12B8864332B80B5E7442B0FD12B6810
:103D6000643B2B6071E7442B11D12B68643B2B60C3
:103D70002EE7442B13D12B88643B2B80A3E72A2BFF
:103D800015D12B6803EB83035B002B605DE72A2BC7
:103D900015D12B6803EB83035B002B6018E72A2BFC
:103DA00017D12B8803EB83035B002B808BE72F2B32
:103DB0005ED12A68A8FB0232D2082A6046E72F2B80
:103DC0005CD12A6888FB0213D217C2EBA3022A60D7
:103DD000FFE62F2B3FD1B5F9003088FB0321DA171E
:103DE000C2EBA10212B22A806FE74FF4FA70FEF71D
:103DF0006FFA1FE74FF4FA70FEF76AFA58E700BF50
:103E0000F86B0008AC6C000824690008246C0008FA
:103E1000506C00089C080020E0690008106A000847
:103E20007C6C00081C6D0008946C0008F8080020E9
:103E3000286A0008486A00080C6C0008FC0800208A
:103E4000C008002067666666CDCCCCCC4FF4FA7013
:103E5000FEF73EFAAEE6782B06D120460D49FEF776
:103E6000BFFC02B0BDE8F0811F2B7FF618AF2AE738
:103E7000782BF2D01F2B7FF6D4AEE6E6782BECD071
:103E80001F2B7FF68EAEA3E620460349FEF7A8FC63
:103E900056E600BF406A0008C46C0008000000003D
:103EA000F0B5294CA7B0206880210368274F5B6AD2
:103EB000984720689422036801A99B689847244981
:103EC0002448FEF78DFC0024224D234E0AE026AB49
:103ED00023443146284613F8942C0134FEF780FC25
:103EE000942C08D02307F2D13946284604F18002E9
:103EF000FEF776FCEBE7194D19491648FEF770FC02
:103F0000BDF89430B5F8902016491248FEF768FCC9
:103F1000BDF8962014490F48FEF762FC134B259A12
:103F20009A420AD112490B48FEF75AFC224628460B
:103F300001A9FCF79BF927B0F0BD0E490548FEF733
:103F40004FFC27B0F0BD00BF30100020F06C00081F
:103F5000DC6C0008B40D0020E064000800080020BC
:103F60007C680008FC6C0008246D0008780055AAE5
:103F7000346D0008546D00080000000000000000CF
:103F800010B504460549FEF72BFC20460449FEF710
:103F900027FCBDE81040FFF783BF00BF8C6D000811
:103FA000B86D0008000000000000000000000000E4
:103FB000012903D0034A0449FEF712BC12680349E1
:103FC000FEF70EBCC86D0008D86D0008E46D00084F
:103FD00000292EDC10B5044682B0184A1849FEF7B5
:103FE000FFFB2046174A1849FEF7FAFB2046174AFE
:103FF0001749FEF7F5FB2046164A1749FEF7F0FB76
:104000002046164A1649FEF7EBFB2046154A16498C
:10401000FEF7E6FB2046154A1549FEF7E1FB154B76
:1040200020460093144A154B1549FEF7D9FB02B000
:1040300010BD144A1449FEF7D3BB00BFF46D00084D
:10404000FC6D0008106E0008506E0008646E0008D9
:104050006C6E0008806E00088C6E0008A06E000870
:10406000B86E0008CC6E0008F86E00080C6F0008EF
:104070001C6F0008586F0008346F0008306F00088C
:10408000406F0008EC6D0008D86D000800000000CB
:104090002DE9F04F00218146DFF824A38368DAF888
:1040A0001420BD48A1B0D9E900B4906119705846F8
:1040B000D9E90223CDE908110A91B849CDE90623CF
:1040C0000394FEF78DFB5846B549FEF789FBDAF8F5
:1040D000143093F8213013F0040340F093800293DE
:1040E0000DF14008CDF80090002547462E46584671
:1040F000AC49FEF775FB009BDFF8C8921C6823688B
:10410000012220469B680DF113019847002843D0F7
:104110009DF813101B2928D05EB15B293AD035B128
:10412000412900F0C480422900F0878000252E46F6
:10413000E5E708291BD07F2919D00D2900F0D08090
:104140000E2900F09780102900F0BA801F29D6D9D7
:104150000DF17F039F42D2D223682046DB68984747
:104160009DF8133007F8013BC9E70126C7E747452B
:10417000C5D0236808212046DB68984723682021A2
:104180002046DB689847236808212046DB68013F0A
:104190009847B4E73546B2E7C820FEF799F805A975
:1041A0004046FEF7EDFA05A90546002000260BACB7
:1041B000FEF7E6FA50B1042E31D044F8040B05A9FD
:1041C00000200136FEF7DCFA0028F4D120AB03EB27
:1041D000860343F8540C75B128467349FCF7BCF8C4
:1041E000002840F01381002E00F0F38058466E4AFC
:1041F0006E49FEF7F5FADAF8143093F821305B07D0
:104200007FF572AF202383F3118800216848FDF702
:10421000D7FC0020FDF7F4FE21B0BDE8F08F584632
:104220006449FEF7DDFA00230F93DAF8143093F8AF
:1042300021305B077FF558AFE4E70122414606A82D
:10424000FEF726F9061E45D18DF8406000250E23A5
:10425000502259492046FEF7C3FA58492046FEF736
:10426000BFFA42464946204608EB0607FEF7B8FA71
:104270002E4644E70122414606A8FEF709F9031E2F
:1042800001932AD18DF840600E23502220464A49DE
:10429000FEF7A6FA20464949FEF7A2FA019B4246DC
:1042A0004344494620461F46FEF79AFA27E7002274
:1042B000414606A8FEF7ECF8061E7FF737AFC5E7C4
:1042C0003246414606A8FEF7E3F8031E01937FF746
:1042D00016AFD9E7FFF62AAFB8E7FFF610AFD3E77E
:1042E00020462E49FEF77CFA079DA7EB08046B1EBB
:1042F0009C424DDA631E18F8031008EB03022029D4
:104300000AD1002C03DC43E0002B41D0013B12F822
:10431000011D1C462029F7D0002C39DD099906988B
:10432000089BCA1A5E1A01329942A5EB020206F1F5
:10433000FF3609DB944209DBC25C134401339D4222
:10434000D8BF5B1B0893ECE7B442F5DA6D1A013D68
:104350000131AC42084437DB2A464146FBF786FF71
:104360000698621B08EB0501FBF780FF099A069986
:10437000631C8C540999079A0B4493420993029940
:10438000A8BF9B1A069AA8BF0993D15400230A9389
:10439000029B3B7003E700BF646F00087C68000865
:1043A0006C6F0008806F0008BC6F0008D86D0008B3
:1043B00074120020A46F0008906F00089C6F000822
:1043C000300E0020A06F000822464146FBF74EFF4A
:1043D000CCE758463249FEF703FA324C324A334DA5
:1043E00029465846FEF7FCF954F8082F002AF7D161
:1043F000039B8BBB58462E49FEF7F2F9DAF81430CE
:1044000093F821305B077FF56FAEFBE6254C26481D
:1044100002E054F8080F88B12946FBF79DFF0028F9
:10442000F7D16368314658460BAA9847DAF814303A
:1044300093F821305B077FF557AEE3E6039CECB1C0
:10444000206818B91AE054F8080FB8B12946FBF7EC
:1044500083FF0028F7D1E4E7039C2268002AC9D033
:10446000124D29465846FEF7BBF954F8082F002A8A
:10447000F7D158460E49FEF7B3F9BFE72A460D4972
:104480005846FEF7ADF958460B49FEF7A9F9DAF898
:10449000143093F821305B077FF526AEB2E600BFFB
:1044A000C46F000844740008EC6D0008D46F000865
:1044B0007C680008A06F0008D86F000800000000AA
:1044C000EFF30983203383F30988002383F31188F2
:1044D000704700BF00000000000000000000000066
:1044E000202383F31188FDF78BBD00BF000000007F
:1044F00030B4012400250C4A1068516903685A60E1
:1045000080F820408C681360506181F8205000E0F2
:104510001B689A689442FBD330BC5A68C1E90032E8
:1045200011605960FBF78CBE300E002000000000C7
:1045300070B51B4D014620236E6983F31188C36853
:104540000068B363884225D0F46B4BB11A6893427C
:1045500003D09268944238BF1446DB68002BF5D133
:104560000368826BB4600B605960C1E90202816329
:10457000FDF70EFB2A686B6992689B689A4203D824
:10458000002383F3118870BDFFF7B2FF002383F38C
:10459000118870BD00238360002383F3118870BDF0
:1045A000300E0020000000000000000000000000AD
:1045B000002932DCF8B51D4C054604F10C00FDF76E
:1045C000B7FC63686BB300242246274659681B6812
:1045D0008C4238BF0C4601370A44002BF6D1D60076
:1045E000E4001348FFF7A4FF124B28465A681B68E3
:1045F0001149D21AFEF7F4F83A4628460F49FEF759
:10460000EFF8324628460E49FEF7EAF822462846D9
:10461000BDE8F8400B49FEF7E3B80B4A0B49FEF73B
:10462000DFB81C461E461F46DBE700BFD40F002044
:10463000E00F0020C80F0020E46F0008047000089D
:104640001C7000083C700008E06F0008D86D00087E
:10465000202282F3118890F82230013B80F822302A
:10466000036A03F0FF130F2B03D0002383F3118899
:10467000704770B5D0E90343DC60C4680021236152
:1046800081F3118890F8213003F00303012B0CD043
:10469000022B00D070BD036CC06982F311881A68C8
:1046A0000260186081F3118870BDC56955E9024345
:1046B0000733DB0804F10C0645F8043C30460434AB
:1046C000FDF736FC2346A5F108019C421A6801D08B
:1046D000994202D91AB1914201D31346F5E755F830
:1046E000044C45F8082C196055F8080C621C01EBC5
:1046F000C204A04211D05868421C03EBC20291428E
:1047000004D03046BDE87040FFF712BF55E90212F1
:1047100001321044C3E90010F3E711C8224445E90F
:104720000202E8E7000000000000000000000000B6
:104730004FF0FF340020124A2DE9804816691461B9
:10474000166910611669D668D460D468D060D468E0
:10475000D4690C4D44F08054D461D469D4690146C5
:1047600044F00064D461D2692C68074A44F4807430
:104770002C600346C2E90000044C054D87B00CE0F4
:104780000010024000700040F00F002008000240BE
:104790003072000805EB4100446850180831382990
:1047A00023608360F6D14FF0FF3160244FF48078AE
:1047B0004FF0800B4FF0400A4FF40075D04A4FF095
:1047C000883E5160CF4AD04E82F80643C2F880A19D
:1047D000C2F800A082F80743C2F880B1C2F800B066
:1047E00082F80843C2F88081C2F8008082F8094349
:1047F000C2F8805115604FF4806582F80A43C2F810
:10480000805115604FF400050120B14682F817432E
:10481000C2F88051156005F17E5582F8284305F5F0
:104820000435C2F88481C2F80480D5F81880B74CEA
:1048300048F07D08C5F81880DFF82083D5F818A067
:10484000E160C4F80480A8F56458A8F13008C4F801
:10485000008008F5725808F13008C4F80C14C4F848
:104860000484C4F80084DFF8F88204F58064C8F892
:104870000C10C8F804E0C8F800E0DFF8E882C4F8DB
:104880000C18C4F804E8C4F800883072C4F80C1C92
:10489000C4F804ECC4F800EC9D4CDFF8CC8249F875
:1048A000044B9C4CDFF8C4E2C8F8344008F10C0417
:1048B000C8E90344984CC6F80490CEF80C404FF079
:1048C0008044DFF8AC92DFF8ACA2C9F80C4004F5E4
:1048D0000064CAF8184006F10C044FF0040CC6E955
:1048E000034410248EF8000088F80000CEF804304D
:1048F00089F800008AF800008AF810C0C8E90B3374
:10490000C8F80430C8F81430C8F81C30C9F80430AE
:10491000CAF80430CAF80C307361B463EC69B3624E
:1049200044F00204EC617D4CED696568F66245F483
:1049300080553665656048F69F45794C6746A562A7
:104940004FF6FF75E562A3616363E36063606061D6
:1049500020604FF0005406F1740082F81DB33064FB
:104960007048714DF0647148C2F88041706706F17B
:104970005400C6E90800B06106F16400C6E9110000
:10498000F061F06306F13000C6E90C00146068487D
:10499000684C694AC5E90055206004F10C00C4E97F
:1049A000030002F1100010611420906102F1240054
:1049B000506202F1280090621C20C2F81CC0C2F8AC
:1049C00034C01063DFF8B0C102F14000106405F19B
:1049D0001800C5E90600DFF8A4B1C2F820C0C2F88B
:1049E00038C05648DFF898C102F13C0EC0E900BC5F
:1049F0004FF0000B4FF0000CC2F83CE002F1440E07
:104A0000C5E90235C4E90133C2E900222D612962FA
:104A1000AB84636193605361D362C2F844E0CDE933
:104A200004BCCDE9013300912B6703936846FDF781
:104A30002FF86846FDF704F8013FF7D180200121E7
:104A40003F4A009BC5E90D05A866DFF838E12869F3
:104A50002B6702F1280C02F12C03C5E9187785F8C1
:104A60004D7085F84E10C5F844E0E8634FF0200B18
:104A7000C260C5E90422C5E915C385F84C10AF64CE
:104A8000EB658BF3118862B64FF6FF0C10202D4BAF
:104A90002D4AD96801EA0C010A430CF1604CDA6036
:104AA000ACF60F3CDCF80C20284942F08072CCF8C0
:104AB0000C200A6842F001020A60D87783F822B01D
:104AC00087F3118862B68BF311882148FCF7E8FF61
:104AD000FDF7E6F987F311881E4B5A6842F0007221
:104AE0005A605A6842F480725A608BF311881A49EE
:104AF0009AF800304868012BCAE9011044E000BF71
:104B00000000024000E100E0B40D00200008014078
:104B1000AC74000800540040002C0140002004E068
:104B200000040040E1180008300E0020004400405E
:104B3000A1180008D40F0020A40E0020C80F0020E8
:104B40005C0E002000ED00E00003FA05001000E01C
:104B50009C73000800000140C4080020B8848888C5
:104B60000010014044888888300D0020680D002026
:104B7000800D0020980D0020111A0008C813002095
:104B800000500020B472000800F0C582DAF8183036
:104B90001F605F639F63DF631F645F62DAF8143036
:104BA0000A6800F1FF3CB3FBF2F3DAF81800CA68B8
:104BB000013B836202F00F02CB6A012AC0F82CC0CD
:104BC000436002D0022A02D1174647F001074B6921
:104BD00003F00F03012B03D0022B03D147F0200772
:104BE00047F01007CB6903F00F03012B03D0022B12
:104BF00003D147F4007747F480774B6A03F00F0343
:104C0000012B03D0022B03D147F4005747F4805700
:104C100000234FF0010B4FF0850E4FF0020C0A6B92
:104C2000076222F0FF02C0F814B00361C260C0F84E
:104C300000E0CAF80C308AF800C083F31188202302
:104C400083F31188DAF81820D368D90740F1038379
:104C5000002787F3118810224FF48071C548FDF7B3
:104C600087F8202383F3118899F80030C24A012B7A
:104C7000C9F8042000F0FA82D9F80C301F605F6395
:104C80009F635F62D9F8083050680027B3FBF0F0EB
:104C9000D9F80C3091691F61D769013821F0FF0103
:104CA000D9609862002F00F0DD82DF62117D00295B
:104CB00040F0C18240F2012054211278986199603D
:104CC000002A40F0B58231221A6203F138023433EF
:104CD000C9E904230223002289F8003082F31188F5
:104CE000202080F311884FF0050C0327D9F80C30F1
:104CF000596941F0010159611A61C3F800C089F88E
:104D0000007082F3118880F31188D9F80C10CB68F9
:104D100013F0FF0011D1D9F804200861107D00289C
:104D200040F0C0829068002800F0C68243F006037D
:104D300012690AB143F00103CB60002383F31188A9
:104D4000032208218B48FDF713F8202383F31188F1
:104D5000337A012B0DD14021C020884BDA6942F40F
:104D60000032DA61DB69864B83F82603C3F88411CD
:104D7000596040F2A9394FF0400E4FF0010C42F259
:104D80002C170022FF200221736FC3F80890C3F88C
:104D900010E0C3F814C0DF601A601F685B6886F813
:104DA0007800317282F31188724E10220421754806
:104DB000FCF7DEFF304606221021FCF7D9FF102356
:104DC0004FF400517048736106224161FCF7D0FF37
:104DD0006E496F48FDF704FD6E4B20221B6082F385
:104DE000118898F800906C4BB9F1010FD8F8347025
:104DF000C8F804303DD19A238A2206F58236C8F8D5
:104E000028303369C8F8242043F400133361336930
:104E1000624923F40013336106203369FCF728FC50
:104E200003465F490520C8F82C30FCF721FC0246F8
:104E30004FF0500C4FF00040F369C8F8302043F4B5
:104E40000013F361D8E9092342F4405143F440527E
:104E5000F3694B4BC8F8241083F81FC3C8F8282007
:104E6000C3F88001186083F820C3C3F88491C3F8A5
:104E700004904FF4004C4FF4106600234FF6C070BE
:104E8000D8F82C104A68D8F83010D1F804E007F1AF
:104E900010019160D8F83420CEF80810C7F800C08F
:104EA0003B607E605668D8F80410064091F808C050
:104EB000486856605668DFF814E146F024067045ED
:104EC000566000F3A281374B400093FBF0F325209E
:104ED000C3F30B031062D3610978136802299BB2F4
:104EE00000F08D81032900F08781012900F0808185
:104EF0004FF0020913603B68002643F001033B605A
:104F000088F8009086F31188102240211948FCF798
:104F10002FFF112280211748FCF72AFF22491C4845
:104F2000FDF75EFC214B1A78182A40F0DA815868A8
:104F30001F4F204B204AC3E901661860DF601F49FC
:104F40001348136040F21A47FDF74AFCFEF7A8FF2A
:104F50004FF480411A4B0C481A4A0161A3F8827041
:104F6000194FC3F884200622C3E92277FCF700FF1B
:104F70002EE000BF000C0140A008002000100240FD
:104F800000E100E000080140001001405C700008F2
:104F9000B40D00207412002090730008011D000859
:104FA000C11C0008005125028070000894080020F0
:104FB0007473000834100020301000209070000836
:104FC00000080020A4708D4020A10700A0860100E9
:104FD000C5484946C0F810900622FCF7C9FE0322D6
:104FE0004FF48051C148FCF7C3FE202383F311889E
:104FF0004FF0010C8121BE4BBE4A03F1DC07BE48D5
:10500000C3F81471C3F8DC20BC4F2A69C3F8FC0054
:1050100003F58070C3F81021C3F80811C3F83C11E0
:10502000C3E94D66A3F82091C3F8E060C3F80C51C2
:10503000C3F81C3183F822C1C3F8187103F59471C9
:10504000D06003F59672C3E94A12C3F83021286193
:10505000FCF726FF86F311883546A94EDFF8B8A283
:10506000DFF8B892DFF8B882A6F108074DB195F8DD
:1050700020300F2B7CD04FF47A70FDF729F9002DEA
:10508000F5D13046FCF754FF636838460BB917E09A
:105090001346596803F10F054A1C25F0070503EB79
:1050A000C202A5F1080E964506D2A2EB050C4FEA06
:1050B000EC0CBCF58C7F63D81A681846002AE7D13F
:1050C0003046FFF735FA2368002B54D0082240F60B
:1050D000C80011469847054600284CD040F6C80342
:1050E00040E90243812305F6C8020393CDE900A5F8
:1050F0002023CDE90498029283F311886846FCF7D7
:10510000CFFC012380F821300546FCF7C9FE0023BF
:1051100083F31188AFE74FF0804C4FF0700E46F6E6
:105120006802784BD3F81CB04BF0040BC3F81CB0EA
:10513000D3F81CB0D3F810B04BF0040BC3F810B088
:10514000D3F810B02BF0040BC3F810B01B696E4BF2
:10515000DAF818B083F81EE3C3F880C1C3F800C0C2
:105160006A4BCBF81820CAF81430CBF81C2015E590
:105170002846FFF76DFA4FF47A70FDF7A9F880E73B
:1051800073451BD240F2191103F10802AEEB020283
:10519000D2108C455A6009D01A68ACF58D7105F6AD
:1051A000C800CEF8D418CEF8D028186040F6C8034E
:1051B0003046CEE90043FFF7BBF993E740F21915FB
:1051C000A9420FD003F6D8011D68521AD21003F578
:1051D0000D61C3F8D058C3F8D4289E4603F10805E2
:1051E0000160E3E71D4655F8082B9E460260DDE7A7
:1051F00023F00A039BB27BE643F00A0378E623F030
:1052000008039BB243F0020372E6414EB0423FF7FF
:1052100062AEBCF1020F52D0BCF1030F57D018465A
:1052200040F6FF730B26034343F40043166252E635
:1052300013221A6249E54FF4817064211278986153
:105240009960002A35D113221A6203F134023833EF
:10525000C9E904233EE56FF0010143EA0B03116144
:10526000D360F5E44FF0FF31D9621FE54FF0805075
:105270007027244BD96941F00101D961D9691969B5
:1052800041F001011961196921F0010119611B69DE
:105290001E491D4B83F81C73C9F80810C3F8800120
:1052A0001860EFE4906800287FF440AD43F00403F9
:1052B0003EE531221A62C8E743F0020338E5154E95
:1052C00000EB4000B6FBF0F61846B3B2AAE719238C
:1052D00003FB00F60F4B4FF48040B3FBF6F39BB299
:1052E000A0E77368FFDE00BF00080140000C01402A
:1052F00080120020F1220008510200089870000876
:10530000E00F00200010024000E100E000A24A048B
:10531000801A060000512502646F000891400008C1
:1053200034740008000000000000000000000000CD
:1053300000294DDC2DE9F04F274987B0054620268E
:10534000FDF74EFA86F31188244F0022FC6894F88A
:105350002230013384F8223082F31188DFF888A0EC
:10536000DFF88890DFF888800BE09BF8223000227D
:1053700001338BF8223082F311882046FFF768F959
:105380005C46A16994F82030002908BF494694F88A
:105390002200D4F808C05AF823E00138E2696369B2
:1053A000CDE903E1CDE9010C414628460094FDF723
:1053B00017FA86F31188D4F80CB0BB45D5D1002379
:1053C00083F31188204607B0BDE8F04FFFF740B9DE
:1053D000034A0449FDF704BAA8700008300E002003
:1053E000A0700008D86D00086C740008246A0008DA
:1053F000E87000080000000000000000000000004D
:105400000AB9002070472DE9F04F054689B00E46D5
:105410001446FCF735FDA968531883425BD8012C6C
:105420005CD042F21073EF6804F1030C3868BA697B
:10543000084403FB0CF3000A107038683C4A01442E
:10544000DB09B869A2FB0323417038691B090C30E2
:105450000593FCF76DFD2022D7F81080B7F814A053
:10546000D7F818B082F311884FF4FA6C03224FF08A
:10547000000940F2E7300021059B88F800200A333C
:10548000ECFB03014FF47A720023C8F80890FBF795
:1054900073FFCDE9006402905A465146404602230C
:1054A000FCF776FF431C14BF02230523064688F849
:1054B000003089F3118838690C30FFF739F81EB1D4
:1054C000002009B0BDE8F08FA96828462144FCF708
:1054D000C7FC2046F5E7441AF2D0A0E74B1C9842DF
:1054E00010DD0222284607A9FFF78AFF0228E7D12C
:1054F000A96828460131FCF7B3FC9DF81C30204612
:105500003370DEE701392846FCF7AAFC0222284660
:1055100007A9FFF775FF0228D2D1A96828460231F2
:10552000FCF79EFC9DF81D3020463370C9E700BF94
:10553000598B4F0100000000000000000000000037
:105540002DE9F04FD0E902C442F2107798460646A2
:105550002068A36902F1030E604407FB0EF7000AFE
:1055600018702068A369DFF8BCE06044FF09587038
:10557000AEFB0737A06987B03B090230154605939B
:10558000FAF774FE2069C1460C30FCF7D1FC2022EA
:10559000D4F81080B4F814A0D4F818B082F31188AD
:1055A0004FF4FA6C0027032240F2E7300021059BFC
:1055B00088F800200A33ECFB03014FF47A720023D1
:1055C000C8F80870FBF7D8FEAB1C514602905A464B
:1055D0004046CDE90077FCF7DBFE8246013014BF80
:1055E0000223052388F8003087F3118820690C30E6
:1055F000FEF79EFFE089FCF76BFEBAF1000F03D0C7
:10560000504607B0BDE8F08FD9F8003030462B4443
:10561000C9F80030B1682944FCF722FC504607B0B5
:10562000BDE8F08F598B4F01000000000000000022
:1056300000232DE9F04182B0144601931AB92046A7
:1056400002B0BDE8F08106460D46FCF719FCB268D1
:10565000A31883422ED8F36819689F890A44511E03
:105660002144B1FBF7F1B2FBF7F38B4228D003FBE7
:105670000773A3EB020842462946304601ABFFF709
:105680005FFF90B9019B4544E21A974204D31FE0A3
:10569000019BE21A97421BD229463A46304601AB9B
:1056A000FFF74EFF3D440028F2D0019C204602B097
:1056B000BDE8F081841ACED1204602B0BDE8F08169
:1056C00022462946304601ABFFF73AFF019CB6E778
:1056D0000AB91C46B3E72946304601ABFFF730FF55
:1056E000E3E700BF00000000000000000000000031
:1056F0001B4A1346116841F0010111601A689107B5
:10570000FCD500201968164A01F0F90119605860AB
:10571000536813F00C0FFBD11168114B41F4803129
:1057200011601A689203FCD559680D4A41F4E811DA
:105730005960196841F08071196013689B01FCD5AC
:105740001221084B0848506019605368044943F01F
:10575000020353604B6803F00C03082BFAD1704727
:10576000001002400020024000641D000000000004
:105770002DE9F84F6C4C666FD6F80C803368DA056B
:105780009DB200F18280202383F3118815F02F0F42
:105790004FD0664F4FF0000A07F1080908E0A8064D
:1057A000D6F804B01ED4336813F02F0F9DB240D04A
:1057B0002B07F4D015F0080F0CBF00218021E8075B
:1057C00048BF41F02001AA0748BF41F040016B07E4
:1057D000384648BF41F48071FCF7F2F9A806D6F8C4
:1057E00004B0E0D5636994F87850002B3CD0D4E93C
:1057F0000832934240D06269591C013205EA0B0518
:10580000626121621D70D4E907329A4201D3A36913
:105810002362E0684845C6D00368E360C3F804909B
:10582000C0F824A0FCF7B4F9336813F02F0F9DB231
:10583000BED1002383F3118818F0800F01D02A060F
:1058400032D418F0400F0BD06B0609D5202383F318
:105850001188D4E911239A424BD0002383F3118895
:10586000BDE8F84FFCF7ACB804213846FCF7A8F9BE
:10587000D4E908329342BED16269002ABBD04FF40A
:1058800080613846FCF79CF98DE7202383F311886B
:105890004FF40071201DFCF793F96FF48072002320
:1058A000326083F311886EE7202383F31188D4E9F3
:1058B00011239A422AD0A26B206C591C0132A26398
:1058C000A16481421F7801D3E36BA364206B184B62
:1058D000984206D000210268226353604162FCF7BF
:1058E00057F97760002383F3118818F0400FB7D081
:1058F000AAE7A36B002BB0D010210C48FCF760F98D
:105900004FF6BF7308EA0303F360A6E7A26B002A11
:10591000D1D008210548FCF753F94FF67F7308EA08
:105920000303F360DEE700BFB40D0020B80D0020D4
:10593000E40D002000000000000000000000000056
:1059400038B5174DAB691C69DA681440E2B2D2432E
:105950001A61A30704D56B681B690BB128469847E9
:10596000600704D56B689B690BB10D489847210708
:1059700004D56B681B6A0BB109489847E20604D549
:105980006B689B6A0BB106489847E30704D56B68C0
:105990009B680BB102489847BDE83840FCF710B847
:1059A000980D002000000000000000000000000032
:1059B00008B50348FCF73CF9BDE80840FCF700B81F
:1059C000800D00200000000000000000000000002A
:1059D00008B50348FCF72CF9BDE80840FBF7F0BF19
:1059E000680D002000000000000000000000000022
:1059F000FFF7EEBF00000000000000000000000004
:105A00002DE9F8432C4D2B69EA681340DAB2D243F2
:105A10009B072A6103D4BDE8F843FBF7D1BF2023DD
:105A200083F31188254E6B6AB28CB0699BB2816892
:105A30009C1AA4B28C4228BF002706F1180821D373
:105A40004FF0200900E0B28C03680A444345B28459
:105A5000A4EB0104C268C3F80480B361C76008BF47
:105A6000EF6087F311880069904789F31188B06966
:105A700081688C42E7D26B6AB28C9BB29C1AA4B24A
:105A80008C42DDD2404510D04FF6FF718268B3845E
:105A9000141BA1420A4628BF2246022A2CBF9B188B
:105AA0000233054A9BB284605363002383F3118859
:105AB000BDE8F843FBF784BF00040040300E00202F
:105AC000354AF8B5D2E90C6461690E2301F45F40F0
:105AD000C043776860613D68D06A25F00F053D607E
